{
  "abi": [
    {
      "inputs": [
        {
          "internalType": "uint256",
          "name": "emissionMultiple",
          "type": "uint256"
        },
        {
          "internalType": "uint256",
          "name": "lastBalanceWad",
          "type": "uint256"
        },
        {
          "internalType": "uint256",
          "name": "daysElapsedWad",
          "type": "uint256"
        }
      ],
      "name": "computeGooBalance",
      "outputs": [
        {
          "internalType": "uint256",
          "name": "",
          "type": "uint256"
        }
      ],
      "stateMutability": "pure",
      "type": "function"
    }
  ],
  "bytecode": {
    "object": "0x608060405234801561001057600080fd5b506101bb806100206000396000f3fe608060405234801561001057600080fd5b506004361061002b5760003560e01c80630d45e5ff14610030575b600080fd5b61004361003e366004610182565b610055565b60405190815260200160405180910390f35b6000806100628380610095565b905061008361007c858702670de0b6b3a7640000026100b1565b8490610095565b90850260021c84010190509392505050565b60006100aa8383670de0b6b3a7640000610163565b9392505050565b60b5817101000000000000000000000000000000000081106100d85760409190911b9060801c5b690100000000000000000081106100f45760209190911b9060401c5b65010000000000811061010c5760109190911b9060201c5b630100000081106101225760089190911b9060101c5b62010000010260121c80820401600190811c80830401811c80830401811c80830401811c80830401811c80830401811c80830401901c908190048111900390565b82820281151584158583048514171661017b57600080fd5b0492915050565b60008060006060848603121561019757600080fd5b50508135936020830135935060409092013591905056fea164736f6c634300080d000a",
    "linkReferences": {}
  },
  "methodIdentifiers": {
    "computeGooBalance(uint256,uint256,uint256)": "0d45e5ff"
  },
  "id": 50
}