{
  "abi": [
    {
      "inputs": [
        {
          "internalType": "bytes32",
          "name": "_merkleRoot",
          "type": "bytes32"
        },
        {
          "internalType": "uint256",
          "name": "_mintStart",
          "type": "uint256"
        },
        {
          "internalType": "contract Goo",
          "name": "_goo",
          "type": "address"
        },
        {
          "internalType": "contract Pages",
          "name": "_pages",
          "type": "address"
        },
        {
          "internalType": "address",
          "name": "_team",
          "type": "address"
        },
        {
          "internalType": "address",
          "name": "_community",
          "type": "address"
        },
        {
          "internalType": "contract RandProvider",
          "name": "_randProvider",
          "type": "address"
        },
        {
          "internalType": "string",
          "name": "_baseUri",
          "type": "string"
        },
        {
          "internalType": "string",
          "name": "_unrevealedUri",
          "type": "string"
        }
      ],
      "stateMutability": "nonpayable",
      "type": "constructor"
    },
    {
      "inputs": [],
      "name": "AlreadyClaimed",
      "type": "error"
    },
    {
      "inputs": [],
      "name": "Cannibalism",
      "type": "error"
    },
    {
      "inputs": [
        {
          "internalType": "uint256",
          "name": "gobblerId",
          "type": "uint256"
        }
      ],
      "name": "CannotBurnLegendary",
      "type": "error"
    },
    {
      "inputs": [
        {
          "internalType": "uint256",
          "name": "cost",
          "type": "uint256"
        }
      ],
      "name": "InsufficientGobblerAmount",
      "type": "error"
    },
    {
      "inputs": [],
      "name": "InvalidProof",
      "type": "error"
    },
    {
      "inputs": [
        {
          "internalType": "uint256",
          "name": "gobblersLeft",
          "type": "uint256"
        }
      ],
      "name": "LegendaryAuctionNotStarted",
      "type": "error"
    },
    {
      "inputs": [],
      "name": "MintStartPending",
      "type": "error"
    },
    {
      "inputs": [],
      "name": "NoRemainingLegendaryGobblers",
      "type": "error"
    },
    {
      "inputs": [
        {
          "internalType": "uint256",
          "name": "totalRemainingToBeRevealed",
          "type": "uint256"
        }
      ],
      "name": "NotEnoughRemainingToBeRevealed",
      "type": "error"
    },
    {
      "inputs": [],
      "name": "NotRandProvider",
      "type": "error"
    },
    {
      "inputs": [
        {
          "internalType": "address",
          "name": "owner",
          "type": "address"
        }
      ],
      "name": "OwnerMismatch",
      "type": "error"
    },
    {
      "inputs": [
        {
          "internalType": "uint256",
          "name": "currentPrice",
          "type": "uint256"
        }
      ],
      "name": "PriceExceededMax",
      "type": "error"
    },
    {
      "inputs": [],
      "name": "RequestTooEarly",
      "type": "error"
    },
    {
      "inputs": [],
      "name": "ReserveImbalance",
      "type": "error"
    },
    {
      "inputs": [],
      "name": "RevealsPending",
      "type": "error"
    },
    {
      "inputs": [],
      "name": "SeedPending",
      "type": "error"
    },
    {
      "inputs": [
        {
          "internalType": "address",
          "name": "caller",
          "type": "address"
        }
      ],
      "name": "UnauthorizedCaller",
      "type": "error"
    },
    {
      "inputs": [],
      "name": "ZeroToBeRevealed",
      "type": "error"
    },
    {
      "anonymous": false,
      "inputs": [
        {
          "indexed": true,
          "internalType": "address",
          "name": "owner",
          "type": "address"
        },
        {
          "indexed": true,
          "internalType": "address",
          "name": "operator",
          "type": "address"
        },
        {
          "indexed": false,
          "internalType": "bool",
          "name": "approved",
          "type": "bool"
        }
      ],
      "name": "ApprovalForAll",
      "type": "event"
    },
    {
      "anonymous": false,
      "inputs": [
        {
          "indexed": true,
          "internalType": "address",
          "name": "user",
          "type": "address"
        },
        {
          "indexed": true,
          "internalType": "uint256",
          "name": "gobblerId",
          "type": "uint256"
        },
        {
          "indexed": true,
          "internalType": "address",
          "name": "nft",
          "type": "address"
        },
        {
          "indexed": false,
          "internalType": "uint256",
          "name": "id",
          "type": "uint256"
        }
      ],
      "name": "ArtFedToGobbler",
      "type": "event"
    },
    {
      "anonymous": false,
      "inputs": [
        {
          "indexed": true,
          "internalType": "address",
          "name": "user",
          "type": "address"
        },
        {
          "indexed": true,
          "internalType": "uint256",
          "name": "gobblerId",
          "type": "uint256"
        }
      ],
      "name": "GobblerClaimed",
      "type": "event"
    },
    {
      "anonymous": false,
      "inputs": [
        {
          "indexed": true,
          "internalType": "address",
          "name": "user",
          "type": "address"
        },
        {
          "indexed": true,
          "internalType": "uint256",
          "name": "gobblerId",
          "type": "uint256"
        },
        {
          "indexed": false,
          "internalType": "uint256",
          "name": "price",
          "type": "uint256"
        }
      ],
      "name": "GobblerPurchased",
      "type": "event"
    },
    {
      "anonymous": false,
      "inputs": [
        {
          "indexed": true,
          "internalType": "address",
          "name": "user",
          "type": "address"
        },
        {
          "indexed": false,
          "internalType": "uint256",
          "name": "numGobblers",
          "type": "uint256"
        },
        {
          "indexed": false,
          "internalType": "uint256",
          "name": "lastRevealedId",
          "type": "uint256"
        }
      ],
      "name": "GobblersRevealed",
      "type": "event"
    },
    {
      "anonymous": false,
      "inputs": [
        {
          "indexed": true,
          "internalType": "address",
          "name": "user",
          "type": "address"
        },
        {
          "indexed": false,
          "internalType": "uint256",
          "name": "newGooBalance",
          "type": "uint256"
        }
      ],
      "name": "GooBalanceUpdated",
      "type": "event"
    },
    {
      "anonymous": false,
      "inputs": [
        {
          "indexed": true,
          "internalType": "address",
          "name": "user",
          "type": "address"
        },
        {
          "indexed": true,
          "internalType": "uint256",
          "name": "gobblerId",
          "type": "uint256"
        },
        {
          "indexed": false,
          "internalType": "uint256[]",
          "name": "burnedGobblerIds",
          "type": "uint256[]"
        }
      ],
      "name": "LegendaryGobblerMinted",
      "type": "event"
    },
    {
      "anonymous": false,
      "inputs": [
        {
          "indexed": true,
          "internalType": "address",
          "name": "user",
          "type": "address"
        },
        {
          "indexed": true,
          "internalType": "address",
          "name": "newOwner",
          "type": "address"
        }
      ],
      "name": "OwnerUpdated",
      "type": "event"
    },
    {
      "anonymous": false,
      "inputs": [
        {
          "indexed": true,
          "internalType": "address",
          "name": "user",
          "type": "address"
        },
        {
          "indexed": true,
          "internalType": "contract RandProvider",
          "name": "newRandProvider",
          "type": "address"
        }
      ],
      "name": "RandProviderUpgraded",
      "type": "event"
    },
    {
      "anonymous": false,
      "inputs": [
        {
          "indexed": false,
          "internalType": "uint256",
          "name": "randomness",
          "type": "uint256"
        }
      ],
      "name": "RandomnessFulfilled",
      "type": "event"
    },
    {
      "anonymous": false,
      "inputs": [
        {
          "indexed": true,
          "internalType": "address",
          "name": "user",
          "type": "address"
        },
        {
          "indexed": false,
          "internalType": "uint256",
          "name": "toBeRevealed",
          "type": "uint256"
        }
      ],
      "name": "RandomnessRequested",
      "type": "event"
    },
    {
      "anonymous": false,
      "inputs": [
        {
          "indexed": true,
          "internalType": "address",
          "name": "user",
          "type": "address"
        },
        {
          "indexed": false,
          "internalType": "uint256",
          "name": "lastMintedGobblerId",
          "type": "uint256"
        },
        {
          "indexed": false,
          "internalType": "uint256",
          "name": "numGobblersEach",
          "type": "uint256"
        }
      ],
      "name": "ReservedGobblersMinted",
      "type": "event"
    },
    {
      "anonymous": false,
      "inputs": [
        {
          "indexed": true,
          "internalType": "address",
          "name": "operator",
          "type": "address"
        },
        {
          "indexed": true,
          "internalType": "address",
          "name": "from",
          "type": "address"
        },
        {
          "indexed": true,
          "internalType": "address",
          "name": "to",
          "type": "address"
        },
        {
          "indexed": false,
          "internalType": "uint256[]",
          "name": "ids",
          "type": "uint256[]"
        },
        {
          "indexed": false,
          "internalType": "uint256[]",
          "name": "amounts",
          "type": "uint256[]"
        }
      ],
      "name": "TransferBatch",
      "type": "event"
    },
    {
      "anonymous": false,
      "inputs": [
        {
          "indexed": true,
          "internalType": "address",
          "name": "operator",
          "type": "address"
        },
        {
          "indexed": true,
          "internalType": "address",
          "name": "from",
          "type": "address"
        },
        {
          "indexed": true,
          "internalType": "address",
          "name": "to",
          "type": "address"
        },
        {
          "indexed": false,
          "internalType": "uint256",
          "name": "id",
          "type": "uint256"
        },
        {
          "indexed": false,
          "internalType": "uint256",
          "name": "amount",
          "type": "uint256"
        }
      ],
      "name": "TransferSingle",
      "type": "event"
    },
    {
      "anonymous": false,
      "inputs": [
        {
          "indexed": false,
          "internalType": "string",
          "name": "value",
          "type": "string"
        },
        {
          "indexed": true,
          "internalType": "uint256",
          "name": "id",
          "type": "uint256"
        }
      ],
      "name": "URI",
      "type": "event"
    },
    {
      "inputs": [],
      "name": "BASE_URI",
      "outputs": [
        {
          "internalType": "string",
          "name": "",
          "type": "string"
        }
      ],
      "stateMutability": "view",
      "type": "function"
    },
    {
      "inputs": [],
      "name": "FIRST_LEGENDARY_GOBBLER_ID",
      "outputs": [
        {
          "internalType": "uint256",
          "name": "",
          "type": "uint256"
        }
      ],
      "stateMutability": "view",
      "type": "function"
    },
    {
      "inputs": [],
      "name": "LEGENDARY_AUCTION_INTERVAL",
      "outputs": [
        {
          "internalType": "uint256",
          "name": "",
          "type": "uint256"
        }
      ],
      "stateMutability": "view",
      "type": "function"
    },
    {
      "inputs": [],
      "name": "LEGENDARY_GOBBLER_INITIAL_START_PRICE",
      "outputs": [
        {
          "internalType": "uint256",
          "name": "",
          "type": "uint256"
        }
      ],
      "stateMutability": "view",
      "type": "function"
    },
    {
      "inputs": [],
      "name": "LEGENDARY_SUPPLY",
      "outputs": [
        {
          "internalType": "uint256",
          "name": "",
          "type": "uint256"
        }
      ],
      "stateMutability": "view",
      "type": "function"
    },
    {
      "inputs": [],
      "name": "MAX_MINTABLE",
      "outputs": [
        {
          "internalType": "uint256",
          "name": "",
          "type": "uint256"
        }
      ],
      "stateMutability": "view",
      "type": "function"
    },
    {
      "inputs": [],
      "name": "MAX_SUPPLY",
      "outputs": [
        {
          "internalType": "uint256",
          "name": "",
          "type": "uint256"
        }
      ],
      "stateMutability": "view",
      "type": "function"
    },
    {
      "inputs": [],
      "name": "MINTLIST_SUPPLY",
      "outputs": [
        {
          "internalType": "uint256",
          "name": "",
          "type": "uint256"
        }
      ],
      "stateMutability": "view",
      "type": "function"
    },
    {
      "inputs": [],
      "name": "RESERVED_SUPPLY",
      "outputs": [
        {
          "internalType": "uint256",
          "name": "",
          "type": "uint256"
        }
      ],
      "stateMutability": "view",
      "type": "function"
    },
    {
      "inputs": [],
      "name": "UNREVEALED_URI",
      "outputs": [
        {
          "internalType": "string",
          "name": "",
          "type": "string"
        }
      ],
      "stateMutability": "view",
      "type": "function"
    },
    {
      "inputs": [
        {
          "internalType": "bytes32",
          "name": "",
          "type": "bytes32"
        },
        {
          "internalType": "uint256",
          "name": "randomness",
          "type": "uint256"
        }
      ],
      "name": "acceptRandomSeed",
      "outputs": [],
      "stateMutability": "nonpayable",
      "type": "function"
    },
    {
      "inputs": [
        {
          "internalType": "uint256",
          "name": "gooAmount",
          "type": "uint256"
        }
      ],
      "name": "addGoo",
      "outputs": [],
      "stateMutability": "nonpayable",
      "type": "function"
    },
    {
      "inputs": [
        {
          "internalType": "address",
          "name": "owner",
          "type": "address"
        },
        {
          "internalType": "uint256",
          "name": "id",
          "type": "uint256"
        }
      ],
      "name": "balanceOf",
      "outputs": [
        {
          "internalType": "uint256",
          "name": "bal",
          "type": "uint256"
        }
      ],
      "stateMutability": "view",
      "type": "function"
    },
    {
      "inputs": [
        {
          "internalType": "address[]",
          "name": "owners",
          "type": "address[]"
        },
        {
          "internalType": "uint256[]",
          "name": "ids",
          "type": "uint256[]"
        }
      ],
      "name": "balanceOfBatch",
      "outputs": [
        {
          "internalType": "uint256[]",
          "name": "balances",
          "type": "uint256[]"
        }
      ],
      "stateMutability": "view",
      "type": "function"
    },
    {
      "inputs": [
        {
          "internalType": "address",
          "name": "user",
          "type": "address"
        },
        {
          "internalType": "uint256",
          "name": "gooAmount",
          "type": "uint256"
        }
      ],
      "name": "burnGooForPages",
      "outputs": [],
      "stateMutability": "nonpayable",
      "type": "function"
    },
    {
      "inputs": [
        {
          "internalType": "bytes32[]",
          "name": "proof",
          "type": "bytes32[]"
        }
      ],
      "name": "claimGobbler",
      "outputs": [
        {
          "internalType": "uint256",
          "name": "gobblerId",
          "type": "uint256"
        }
      ],
      "stateMutability": "nonpayable",
      "type": "function"
    },
    {
      "inputs": [],
      "name": "community",
      "outputs": [
        {
          "internalType": "address",
          "name": "",
          "type": "address"
        }
      ],
      "stateMutability": "view",
      "type": "function"
    },
    {
      "inputs": [],
      "name": "currentNonLegendaryId",
      "outputs": [
        {
          "internalType": "uint128",
          "name": "",
          "type": "uint128"
        }
      ],
      "stateMutability": "view",
      "type": "function"
    },
    {
      "inputs": [
        {
          "internalType": "uint256",
          "name": "gobblerId",
          "type": "uint256"
        },
        {
          "internalType": "address",
          "name": "nft",
          "type": "address"
        },
        {
          "internalType": "uint256",
          "name": "id",
          "type": "uint256"
        },
        {
          "internalType": "bool",
          "name": "isERC1155",
          "type": "bool"
        }
      ],
      "name": "feedArt",
      "outputs": [],
      "stateMutability": "nonpayable",
      "type": "function"
    },
    {
      "inputs": [
        {
          "internalType": "uint256",
          "name": "",
          "type": "uint256"
        },
        {
          "internalType": "address",
          "name": "",
          "type": "address"
        },
        {
          "internalType": "uint256",
          "name": "",
          "type": "uint256"
        }
      ],
      "name": "getCopiesOfArtFedToGobbler",
      "outputs": [
        {
          "internalType": "uint256",
          "name": "",
          "type": "uint256"
        }
      ],
      "stateMutability": "view",
      "type": "function"
    },
    {
      "inputs": [
        {
          "internalType": "uint256",
          "name": "",
          "type": "uint256"
        }
      ],
      "name": "getGobblerData",
      "outputs": [
        {
          "internalType": "address",
          "name": "owner",
          "type": "address"
        },
        {
          "internalType": "uint64",
          "name": "idx",
          "type": "uint64"
        },
        {
          "internalType": "uint32",
          "name": "emissionMultiple",
          "type": "uint32"
        }
      ],
      "stateMutability": "view",
      "type": "function"
    },
    {
      "inputs": [
        {
          "internalType": "uint256",
          "name": "gobblerId",
          "type": "uint256"
        }
      ],
      "name": "getGobblerEmissionMultiple",
      "outputs": [
        {
          "internalType": "uint256",
          "name": "",
          "type": "uint256"
        }
      ],
      "stateMutability": "view",
      "type": "function"
    },
    {
      "inputs": [
        {
          "internalType": "address",
          "name": "user",
          "type": "address"
        }
      ],
      "name": "getGobblersOwnedByUser",
      "outputs": [
        {
          "internalType": "uint256",
          "name": "",
          "type": "uint256"
        }
      ],
      "stateMutability": "view",
      "type": "function"
    },
    {
      "inputs": [
        {
          "internalType": "int256",
          "name": "sold",
          "type": "int256"
        }
      ],
      "name": "getTargetSaleTime",
      "outputs": [
        {
          "internalType": "int256",
          "name": "",
          "type": "int256"
        }
      ],
      "stateMutability": "view",
      "type": "function"
    },
    {
      "inputs": [
        {
          "internalType": "address",
          "name": "",
          "type": "address"
        }
      ],
      "name": "getUserData",
      "outputs": [
        {
          "internalType": "uint32",
          "name": "gobblersOwned",
          "type": "uint32"
        },
        {
          "internalType": "uint32",
          "name": "emissionMultiple",
          "type": "uint32"
        },
        {
          "internalType": "uint128",
          "name": "lastBalance",
          "type": "uint128"
        },
        {
          "internalType": "uint64",
          "name": "lastTimestamp",
          "type": "uint64"
        }
      ],
      "stateMutability": "view",
      "type": "function"
    },
    {
      "inputs": [
        {
          "internalType": "address",
          "name": "user",
          "type": "address"
        }
      ],
      "name": "getUserEmissionMultiple",
      "outputs": [
        {
          "internalType": "uint256",
          "name": "",
          "type": "uint256"
        }
      ],
      "stateMutability": "view",
      "type": "function"
    },
    {
      "inputs": [
        {
          "internalType": "int256",
          "name": "timeSinceStart",
          "type": "int256"
        },
        {
          "internalType": "uint256",
          "name": "sold",
          "type": "uint256"
        }
      ],
      "name": "getVRGDAPrice",
      "outputs": [
        {
          "internalType": "uint256",
          "name": "",
          "type": "uint256"
        }
      ],
      "stateMutability": "view",
      "type": "function"
    },
    {
      "inputs": [],
      "name": "gobblerPrice",
      "outputs": [
        {
          "internalType": "uint256",
          "name": "",
          "type": "uint256"
        }
      ],
      "stateMutability": "view",
      "type": "function"
    },
    {
      "inputs": [],
      "name": "gobblerRevealsData",
      "outputs": [
        {
          "internalType": "uint64",
          "name": "randomSeed",
          "type": "uint64"
        },
        {
          "internalType": "uint64",
          "name": "nextRevealTimestamp",
          "type": "uint64"
        },
        {
          "internalType": "uint56",
          "name": "lastRevealedId",
          "type": "uint56"
        },
        {
          "internalType": "uint56",
          "name": "toBeRevealed",
          "type": "uint56"
        },
        {
          "internalType": "bool",
          "name": "waitingForSeed",
          "type": "bool"
        }
      ],
      "stateMutability": "view",
      "type": "function"
    },
    {
      "inputs": [],
      "name": "goo",
      "outputs": [
        {
          "internalType": "contract Goo",
          "name": "",
          "type": "address"
        }
      ],
      "stateMutability": "view",
      "type": "function"
    },
    {
      "inputs": [
        {
          "internalType": "address",
          "name": "user",
          "type": "address"
        }
      ],
      "name": "gooBalance",
      "outputs": [
        {
          "internalType": "uint256",
          "name": "",
          "type": "uint256"
        }
      ],
      "stateMutability": "view",
      "type": "function"
    },
    {
      "inputs": [
        {
          "internalType": "address",
          "name": "",
          "type": "address"
        }
      ],
      "name": "hasClaimedMintlistGobbler",
      "outputs": [
        {
          "internalType": "bool",
          "name": "",
          "type": "bool"
        }
      ],
      "stateMutability": "view",
      "type": "function"
    },
    {
      "inputs": [
        {
          "internalType": "address",
          "name": "",
          "type": "address"
        },
        {
          "internalType": "address",
          "name": "",
          "type": "address"
        }
      ],
      "name": "isApprovedForAll",
      "outputs": [
        {
          "internalType": "bool",
          "name": "",
          "type": "bool"
        }
      ],
      "stateMutability": "view",
      "type": "function"
    },
    {
      "inputs": [],
      "name": "legendaryGobblerAuctionData",
      "outputs": [
        {
          "internalType": "uint128",
          "name": "startPrice",
          "type": "uint128"
        },
        {
          "internalType": "uint128",
          "name": "numSold",
          "type": "uint128"
        }
      ],
      "stateMutability": "view",
      "type": "function"
    },
    {
      "inputs": [],
      "name": "legendaryGobblerPrice",
      "outputs": [
        {
          "internalType": "uint256",
          "name": "",
          "type": "uint256"
        }
      ],
      "stateMutability": "view",
      "type": "function"
    },
    {
      "inputs": [],
      "name": "logisticLimit",
      "outputs": [
        {
          "internalType": "int256",
          "name": "",
          "type": "int256"
        }
      ],
      "stateMutability": "view",
      "type": "function"
    },
    {
      "inputs": [],
      "name": "logisticLimitDoubled",
      "outputs": [
        {
          "internalType": "int256",
          "name": "",
          "type": "int256"
        }
      ],
      "stateMutability": "view",
      "type": "function"
    },
    {
      "inputs": [],
      "name": "merkleRoot",
      "outputs": [
        {
          "internalType": "bytes32",
          "name": "",
          "type": "bytes32"
        }
      ],
      "stateMutability": "view",
      "type": "function"
    },
    {
      "inputs": [
        {
          "internalType": "uint256",
          "name": "maxPrice",
          "type": "uint256"
        },
        {
          "internalType": "bool",
          "name": "useVirtualBalance",
          "type": "bool"
        }
      ],
      "name": "mintFromGoo",
      "outputs": [
        {
          "internalType": "uint256",
          "name": "gobblerId",
          "type": "uint256"
        }
      ],
      "stateMutability": "nonpayable",
      "type": "function"
    },
    {
      "inputs": [
        {
          "internalType": "uint256[]",
          "name": "gobblerIds",
          "type": "uint256[]"
        }
      ],
      "name": "mintLegendaryGobbler",
      "outputs": [
        {
          "internalType": "uint256",
          "name": "gobblerId",
          "type": "uint256"
        }
      ],
      "stateMutability": "nonpayable",
      "type": "function"
    },
    {
      "inputs": [
        {
          "internalType": "uint256",
          "name": "numGobblersEach",
          "type": "uint256"
        }
      ],
      "name": "mintReservedGobblers",
      "outputs": [
        {
          "internalType": "uint256",
          "name": "lastMintedGobblerId",
          "type": "uint256"
        }
      ],
      "stateMutability": "nonpayable",
      "type": "function"
    },
    {
      "inputs": [],
      "name": "mintStart",
      "outputs": [
        {
          "internalType": "uint256",
          "name": "",
          "type": "uint256"
        }
      ],
      "stateMutability": "view",
      "type": "function"
    },
    {
      "inputs": [],
      "name": "name",
      "outputs": [
        {
          "internalType": "string",
          "name": "",
          "type": "string"
        }
      ],
      "stateMutability": "view",
      "type": "function"
    },
    {
      "inputs": [],
      "name": "numMintedForReserves",
      "outputs": [
        {
          "internalType": "uint256",
          "name": "",
          "type": "uint256"
        }
      ],
      "stateMutability": "view",
      "type": "function"
    },
    {
      "inputs": [],
      "name": "numMintedFromGoo",
      "outputs": [
        {
          "internalType": "uint128",
          "name": "",
          "type": "uint128"
        }
      ],
      "stateMutability": "view",
      "type": "function"
    },
    {
      "inputs": [
        {
          "internalType": "address",
          "name": "",
          "type": "address"
        },
        {
          "internalType": "address",
          "name": "",
          "type": "address"
        },
        {
          "internalType": "uint256[]",
          "name": "",
          "type": "uint256[]"
        },
        {
          "internalType": "uint256[]",
          "name": "",
          "type": "uint256[]"
        },
        {
          "internalType": "bytes",
          "name": "",
          "type": "bytes"
        }
      ],
      "name": "onERC1155BatchReceived",
      "outputs": [
        {
          "internalType": "bytes4",
          "name": "",
          "type": "bytes4"
        }
      ],
      "stateMutability": "nonpayable",
      "type": "function"
    },
    {
      "inputs": [
        {
          "internalType": "address",
          "name": "",
          "type": "address"
        },
        {
          "internalType": "address",
          "name": "",
          "type": "address"
        },
        {
          "internalType": "uint256",
          "name": "",
          "type": "uint256"
        },
        {
          "internalType": "uint256",
          "name": "",
          "type": "uint256"
        },
        {
          "internalType": "bytes",
          "name": "",
          "type": "bytes"
        }
      ],
      "name": "onERC1155Received",
      "outputs": [
        {
          "internalType": "bytes4",
          "name": "",
          "type": "bytes4"
        }
      ],
      "stateMutability": "nonpayable",
      "type": "function"
    },
    {
      "inputs": [],
      "name": "owner",
      "outputs": [
        {
          "internalType": "address",
          "name": "",
          "type": "address"
        }
      ],
      "stateMutability": "view",
      "type": "function"
    },
    {
      "inputs": [
        {
          "internalType": "uint256",
          "name": "id",
          "type": "uint256"
        }
      ],
      "name": "ownerOf",
      "outputs": [
        {
          "internalType": "address",
          "name": "owner",
          "type": "address"
        }
      ],
      "stateMutability": "view",
      "type": "function"
    },
    {
      "inputs": [],
      "name": "pages",
      "outputs": [
        {
          "internalType": "contract Pages",
          "name": "",
          "type": "address"
        }
      ],
      "stateMutability": "view",
      "type": "function"
    },
    {
      "inputs": [],
      "name": "randProvider",
      "outputs": [
        {
          "internalType": "contract RandProvider",
          "name": "",
          "type": "address"
        }
      ],
      "stateMutability": "view",
      "type": "function"
    },
    {
      "inputs": [
        {
          "internalType": "uint256",
          "name": "gooAmount",
          "type": "uint256"
        }
      ],
      "name": "removeGoo",
      "outputs": [],
      "stateMutability": "nonpayable",
      "type": "function"
    },
    {
      "inputs": [],
      "name": "requestRandomSeed",
      "outputs": [
        {
          "internalType": "bytes32",
          "name": "",
          "type": "bytes32"
        }
      ],
      "stateMutability": "nonpayable",
      "type": "function"
    },
    {
      "inputs": [
        {
          "internalType": "uint256",
          "name": "numGobblers",
          "type": "uint256"
        }
      ],
      "name": "revealGobblers",
      "outputs": [],
      "stateMutability": "nonpayable",
      "type": "function"
    },
    {
      "inputs": [
        {
          "internalType": "address",
          "name": "from",
          "type": "address"
        },
        {
          "internalType": "address",
          "name": "to",
          "type": "address"
        },
        {
          "internalType": "uint256[]",
          "name": "ids",
          "type": "uint256[]"
        },
        {
          "internalType": "uint256[]",
          "name": "amounts",
          "type": "uint256[]"
        },
        {
          "internalType": "bytes",
          "name": "data",
          "type": "bytes"
        }
      ],
      "name": "safeBatchTransferFrom",
      "outputs": [],
      "stateMutability": "nonpayable",
      "type": "function"
    },
    {
      "inputs": [
        {
          "internalType": "address",
          "name": "from",
          "type": "address"
        },
        {
          "internalType": "address",
          "name": "to",
          "type": "address"
        },
        {
          "internalType": "uint256",
          "name": "id",
          "type": "uint256"
        },
        {
          "internalType": "uint256",
          "name": "amount",
          "type": "uint256"
        },
        {
          "internalType": "bytes",
          "name": "data",
          "type": "bytes"
        }
      ],
      "name": "safeTransferFrom",
      "outputs": [],
      "stateMutability": "nonpayable",
      "type": "function"
    },
    {
      "inputs": [
        {
          "internalType": "address",
          "name": "operator",
          "type": "address"
        },
        {
          "internalType": "bool",
          "name": "approved",
          "type": "bool"
        }
      ],
      "name": "setApprovalForAll",
      "outputs": [],
      "stateMutability": "nonpayable",
      "type": "function"
    },
    {
      "inputs": [
        {
          "internalType": "address",
          "name": "newOwner",
          "type": "address"
        }
      ],
      "name": "setOwner",
      "outputs": [],
      "stateMutability": "nonpayable",
      "type": "function"
    },
    {
      "inputs": [
        {
          "internalType": "bytes4",
          "name": "interfaceId",
          "type": "bytes4"
        }
      ],
      "name": "supportsInterface",
      "outputs": [
        {
          "internalType": "bool",
          "name": "",
          "type": "bool"
        }
      ],
      "stateMutability": "view",
      "type": "function"
    },
    {
      "inputs": [],
      "name": "targetPrice",
      "outputs": [
        {
          "internalType": "int256",
          "name": "",
          "type": "int256"
        }
      ],
      "stateMutability": "view",
      "type": "function"
    },
    {
      "inputs": [],
      "name": "team",
      "outputs": [
        {
          "internalType": "address",
          "name": "",
          "type": "address"
        }
      ],
      "stateMutability": "view",
      "type": "function"
    },
    {
      "inputs": [
        {
          "internalType": "contract RandProvider",
          "name": "newRandProvider",
          "type": "address"
        }
      ],
      "name": "upgradeRandProvider",
      "outputs": [],
      "stateMutability": "nonpayable",
      "type": "function"
    },
    {
      "inputs": [
        {
          "internalType": "uint256",
          "name": "gobblerId",
          "type": "uint256"
        }
      ],
      "name": "uri",
      "outputs": [
        {
          "internalType": "string",
          "name": "",
          "type": "string"
        }
      ],
      "stateMutability": "view",
      "type": "function"
    }
  ],
  "bytecode": {
    "object": "0x6101e06040523480156200001257600080fd5b5060405162005f6538038062005f65833981016040819052620000359162000659565b336803c3656232739e000067044d575b885f0000620000b06005600a620000616107d061271062000750565b6200006d919062000750565b6200007991906200076a565b600a6200008b6107d061271062000750565b62000097919062000750565b620000a3919062000750565b670de0b6b3a76400000290565b608083905266082bd67afbc0008383620000dd620000d782670de0b6b3a76400006200078d565b62000292565b60a0819052600013620001375760405162461bcd60e51b815260206004820152601b60248201527f4e4f4e5f4e454741544956455f44454341595f434f4e5354414e54000000000060448201526064015b60405180910390fd5b506200014e905082670de0b6b3a7640000620007d2565b60c08190526200016790671bc16d674ec8000062000819565b60e052610100525050600280546001600160a01b0319166001600160a01b0384169081179091556040519091506000907f8292fce18fa69edf4db7b94ea2e58241df0ae57f97e0a6c9b29067028bf92d76908290a3506101c08890526101a08990526001600160a01b0387811661012052868116610140528581166101605284811661018052600380546001600160a01b031916918516919091179055815162000219906005906020850190620004bb565b5080516200022f906004906020840190620004bb565b50600980546001600160801b0319166045179055620002528862015180620008aa565b600a80546001600160401b03929092166801000000000000000002600160401b600160801b03199092169190911790555062000901975050505050505050565b6000808213620002d15760405162461bcd60e51b815260206004820152600960248201526815539111519253915160ba1b60448201526064016200012e565b5060606001600160801b03821160071b82811c6001600160401b031060061b1782811c63ffffffff1060051b1782811c61ffff1060041b1782811c60ff10600390811b90911783811c600f1060021b1783811c909110600190811b90911783811c90911017609f81810383019390931b90921c6c465772b2bbbb5f824b15207a3081018102821d6d0388eaa27412d5aca026815d636e018102821d6d0df99ac502031bf953eff472fdcc018102821d6d13cdffb29d51d99322bdff5f2211018102821d6d0a0f742023def783a307a986912e018102821d6d01920d8043ca89b5239253284e42018102821d6c0b7a86d7375468fac667a0a527016c29508e458543d8aa4df2abee7882018202831d6d0139601a2efabe717e604cbb4894018202831d6d02247f7a7b6594320649aa03aba1018202831d6c8c3f38e95a6b1ff2ab1c3b343619018202831d6d02384773bdf1ac5676facced60901901820290921d6cb9a025d814b29c212b8b1a07cd19010260016c0504a838426634cdd8738f543560611b03190105711340daa0d5f769dba1915cef59f0815a550602605f19919091017d0267a36c0c95b3975ab3ee5b203a7614a3f75373f047d803ae7b6687f2b302017d57115e47018c7177eebf7cd370a3356a1b7863008a5ae8028c72b88642840160ae1d90565b828054620004c990620008c5565b90600052602060002090601f016020900481019282620004ed576000855562000538565b82601f106200050857805160ff191683800117855562000538565b8280016001018555821562000538579182015b82811115620005385782518255916020019190600101906200051b565b50620005469291506200054a565b5090565b5b808211156200054657600081556001016200054b565b6001600160a01b03811681146200057757600080fd5b50565b8051620005878162000561565b919050565b634e487b7160e01b600052604160045260246000fd5b600082601f830112620005b457600080fd5b81516001600160401b0380821115620005d157620005d16200058c565b604051601f8301601f19908116603f01168101908282118183101715620005fc57620005fc6200058c565b816040528381526020925086838588010111156200061957600080fd5b600091505b838210156200063d57858201830151818301840152908201906200061e565b838211156200064f5760008385830101525b9695505050505050565b60008060008060008060008060006101208a8c0312156200067957600080fd5b8951985060208a0151975060408a0151620006948162000561565b60608b0151909750620006a78162000561565b9550620006b760808b016200057a565b9450620006c760a08b016200057a565b9350620006d760c08b016200057a565b60e08b01519093506001600160401b0380821115620006f557600080fd5b620007038d838e01620005a2565b93506101008c01519150808211156200071b57600080fd5b506200072a8c828d01620005a2565b9150509295985092959850929598565b634e487b7160e01b600052601160045260246000fd5b6000828210156200076557620007656200073a565b500390565b6000826200078857634e487b7160e01b600052601260045260246000fd5b500490565b60008083128015600160ff1b850184121615620007ae57620007ae6200073a565b6001600160ff1b0384018313811615620007cc57620007cc6200073a565b50500390565b600080821280156001600160ff1b0384900385131615620007f757620007f76200073a565b600160ff1b83900384128116156200081357620008136200073a565b50500190565b60006001600160ff1b03818413828413808216868404861116156200084257620008426200073a565b600160ff1b60008712828116878305891216156200086457620008646200073a565b600087129250878205871284841616156200088357620008836200073a565b878505871281841616156200089c576200089c6200073a565b505050929093029392505050565b60008219821115620008c057620008c06200073a565b500190565b600181811c90821680620008da57607f821691505b602082108103620008fb57634e487b7160e01b600052602260045260246000fd5b50919050565b60805160a05160c05160e05161010051610120516101405161016051610180516101a0516101c05161557b620009ea6000396000818161064c0152818161112d0152612b5301526000818161070a0152612c2c015260008181610b620152818161217a01526122600152600081816108e00152818161211701526121f301526000818161082e0152611dda01526000818161067301528181610e9701528181612a450152612e69015260006124c20152600081816108b9015261249a015260008181610755015261247701526000613bf8015260008181610b890152613bd1015261557b6000f3fe608060405234801561001057600080fd5b50600436106103c45760003560e01c80636d9856e5116101ff578063ca8165a11161011a578063ea6eae3c116100ad578063f5a9fed41161007c578063f5a9fed414610c50578063fa522a1514610c58578063fdfb91d014610c9e578063ffc9896b14610cba57600080fd5b8063ea6eae3c14610bde578063f23a6e6114610bf1578063f242432a14610c2a578063f466d4ab14610c3d57600080fd5b8063dc1fb5a5116100e9578063dc1fb5a514610b5d578063dc38679c14610b84578063e1da26c614610bab578063e985e9c514610bb357600080fd5b8063ca8165a114610ae9578063d075fbba14610b3a578063d71d672f14610b4d578063dbddb26a14610b5557600080fd5b80639cc397fb11610192578063bc197c8111610161578063bc197c8114610a59578063c23d2bf614610ac5578063c911c1b414610acd578063c9bddac614610ad657600080fd5b80639cc397fb146109e45780639eebea0c146109f7578063a22cb46514610a33578063acede5fd14610a4657600080fd5b806385865053116101ce57806385865053146108b457806385f2aef2146108db5780638da5cb5b1461090257806393bf65171461092257600080fd5b80636d9856e5146108585780636d9d33b71461086b578063743ee9941461087e5780638493a7ad1461089157600080fd5b806329afcaf7116102ef5780633f879faf116102825780636352211e116102515780636352211e146107e057806365ca58b81461081657806366be185f146108295780636ab659151461085057600080fd5b80633f879faf1461077f5780634e1273f414610787578063507862d1146107a7578063620927fd146107af57600080fd5b806331a53e9a116102be57806331a53e9a1461073f57806332cb6b0c1461074757806333ed4c591461075057806337e478f51461077757600080fd5b806329afcaf7146106955780632eb2c2d6146106f25780632eb4a7ab146107055780632f689b851461072c57600080fd5b806311f93e78116103675780631c134fae116103365780631c134fae14610567578063201db8dd14610634578063255e468514610647578063274cdd5c1461066e57600080fd5b806311f93e78146104b857806313af4035146104fc57806313b45a471461050f578063184c404d1461052257600080fd5b806306fdde03116103a357806306fdde031461043f5780630b38049f146104885780630e89341c1461049d57806310f255f5146104b057600080fd5b8062fdd58e146103c957806301ffc9a7146104135780630697e17314610436575b600080fd5b6104006103d7366004614a58565b60009081526001602052604090205473ffffffffffffffffffffffffffffffffffffffff161490565b6040519081526020015b60405180910390f35b610426610421366004614ab2565b610d7d565b604051901515815260200161040a565b61040060085481565b61047b6040518060400160405280600c81526020017f41727420476f62626c657273000000000000000000000000000000000000000081525081565b60405161040a9190614b49565b61049b610496366004614b5c565b610e62565b005b61047b6104ab366004614b5c565b610f17565b610400611125565b6104006104c6366004614b75565b73ffffffffffffffffffffffffffffffffffffffff166000908152600b6020526040902054640100000000900463ffffffff1690565b61049b61050a366004614b75565b611187565b61049b61051d366004614b92565b61127e565b6003546105429073ffffffffffffffffffffffffffffffffffffffff1681565b60405173ffffffffffffffffffffffffffffffffffffffff909116815260200161040a565b600a546105f29067ffffffffffffffff808216916801000000000000000081049091169066ffffffffffffff70010000000000000000000000000000000082048116917701000000000000000000000000000000000000000000000081049091169060ff7e010000000000000000000000000000000000000000000000000000000000009091041685565b6040805167ffffffffffffffff968716815295909416602086015266ffffffffffffff928316938501939093521660608301521515608082015260a00161040a565b610400610642366004614c00565b611341565b6104007f000000000000000000000000000000000000000000000000000000000000000081565b6105427f000000000000000000000000000000000000000000000000000000000000000081565b6009546106c9906fffffffffffffffffffffffffffffffff8082169170010000000000000000000000000000000090041682565b604080516fffffffffffffffffffffffffffffffff93841681529290911660208301520161040a565b61049b610700366004614c84565b611874565b6104007f000000000000000000000000000000000000000000000000000000000000000081565b61049b61073a366004614a58565b611dc2565b610400611e43565b61040061271081565b6104007f000000000000000000000000000000000000000000000000000000000000000081565b610400604581565b610400611e6c565b61079a610795366004614d43565b611eb6565b60405161040a9190614dea565b61047b61200b565b6104006107bd366004614dfd565b600c60209081526000938452604080852082529284528284209052825290205481565b6105426107ee366004614b5c565b60009081526001602052604090205473ffffffffffffffffffffffffffffffffffffffff1690565b610400610824366004614b5c565b612099565b6105427f000000000000000000000000000000000000000000000000000000000000000081565b610400600a81565b61049b610866366004614b75565b612313565b610400610879366004614b5c565b612464565b61049b61088c366004614b5c565b6124fb565b61042661089f366004614b75565b60066020526000908152604090205460ff1681565b6104007f000000000000000000000000000000000000000000000000000000000000000081565b6105427f000000000000000000000000000000000000000000000000000000000000000081565b6002546105429073ffffffffffffffffffffffffffffffffffffffff1681565b6109a3610930366004614b5c565b60016020526000908152604090205473ffffffffffffffffffffffffffffffffffffffff81169074010000000000000000000000000000000000000000810467ffffffffffffffff16907c0100000000000000000000000000000000000000000000000000000000900463ffffffff1683565b6040805173ffffffffffffffffffffffffffffffffffffffff909416845267ffffffffffffffff909216602084015263ffffffff169082015260600161040a565b61049b6109f2366004614b5c565b612a04565b610400610a05366004614b75565b73ffffffffffffffffffffffffffffffffffffffff166000908152600b602052604090205463ffffffff1690565b61049b610a41366004614e4a565b612ab9565b610400610a54366004614c00565b612b4e565b610a94610a67366004614c84565b7fbc197c810000000000000000000000000000000000000000000000000000000098975050505050505050565b6040517fffffffff00000000000000000000000000000000000000000000000000000000909116815260200161040a565b610400612d99565b6104006107d081565b610400610ae4366004614e7f565b612de5565b600754610b199070010000000000000000000000000000000090046fffffffffffffffffffffffffffffffff1681565b6040516fffffffffffffffffffffffffffffffff909116815260200161040a565b610400610b48366004614b75565b613002565b610400613157565b61047b61321c565b6105427f000000000000000000000000000000000000000000000000000000000000000081565b6104007f000000000000000000000000000000000000000000000000000000000000000081565b610400613229565b610426610bc1366004614ea2565b600060208181529281526040808220909352908152205460ff1681565b61049b610bec366004614edb565b6134f2565b610a94610bff366004614f23565b7ff23a6e61000000000000000000000000000000000000000000000000000000009695505050505050565b61049b610c38366004614f23565b613769565b610400610c4b366004614b92565b613bca565b610400613c4f565b610400610c66366004614b5c565b6000908152600160205260409020547c0100000000000000000000000000000000000000000000000000000000900463ffffffff1690565b600754610b19906fffffffffffffffffffffffffffffffff1681565b610d34610cc8366004614b75565b600b6020526000908152604090205463ffffffff808216916401000000008104909116906801000000000000000081046fffffffffffffffffffffffffffffffff16907801000000000000000000000000000000000000000000000000900467ffffffffffffffff1684565b6040805163ffffffff95861681529490931660208501526fffffffffffffffffffffffffffffffff9091169183019190915267ffffffffffffffff16606082015260800161040a565b60007f01ffc9a7000000000000000000000000000000000000000000000000000000007fffffffff0000000000000000000000000000000000000000000000000000000083161480610e1057507fd9b67a26000000000000000000000000000000000000000000000000000000007fffffffff000000000000000000000000000000000000000000000000000000008316145b80610e5c57507f0e89341c000000000000000000000000000000000000000000000000000000007fffffffff000000000000000000000000000000000000000000000000000000008316145b92915050565b6040517f5f5a347d000000000000000000000000000000000000000000000000000000008152336004820152602481018290527f000000000000000000000000000000000000000000000000000000000000000073ffffffffffffffffffffffffffffffffffffffff1690635f5a347d90604401600060405180830381600087803b158015610ef057600080fd5b505af1158015610f04573d6000803e3d6000fd5b50505050610f1433826000613c67565b50565b600a54606090700100000000000000000000000000000000900466ffffffffffffff168211610fc05781600003610f5c57505060408051602081019091526000815290565b600082815260016020526040902054600590610f999074010000000000000000000000000000000000000000900467ffffffffffffffff16613d72565b604051602001610faa92919061500e565b6040516020818303038152906040529050919050565b60075470010000000000000000000000000000000090046fffffffffffffffffffffffffffffffff1682116110815760048054610ffc90614f9f565b80601f016020809104026020016040519081016040528092919081815260200182805461102890614f9f565b80156110755780601f1061104a57610100808354040283529160200191611075565b820191906000526020600020905b81548152906001019060200180831161105857829003601f168201915b50505050509050919050565b61108e600a61271061511a565b611099906001615131565b8210156110b457505060408051602081019091526000815290565b60095470010000000000000000000000000000000090046fffffffffffffffffffffffffffffffff166110ea600a61271061511a565b6110f5906001615131565b6110ff9190615131565b821015611111576005610f9983613d72565b505060408051602081019091526000815290565b6000806111527f00000000000000000000000000000000000000000000000000000000000000004261511a565b905061118162015180670de0b6b3a76400008302046007546fffffffffffffffffffffffffffffffff16613bca565b91505090565b60025473ffffffffffffffffffffffffffffffffffffffff16331461120d576040517f08c379a000000000000000000000000000000000000000000000000000000000815260206004820152600c60248201527f554e415554484f52495a4544000000000000000000000000000000000000000060448201526064015b60405180910390fd5b600280547fffffffffffffffffffffffff00000000000000000000000000000000000000001673ffffffffffffffffffffffffffffffffffffffff831690811790915560405133907f8292fce18fa69edf4db7b94ea2e58241df0ae57f97e0a6c9b29067028bf92d7690600090a350565b60035473ffffffffffffffffffffffffffffffffffffffff1633146112cf576040517f69b82b9900000000000000000000000000000000000000000000000000000000815260040160405180910390fd5b600a80547fff00ffffffffffffffffffffffffffffffffffffffffffff00000000000000001667ffffffffffffffff83161790556040517f0678731ae5818cd1d7fea152b34c7ce35819233a9559e8b988bc2b7d7d216a4f906113359083815260200190565b60405180910390a15050565b60095460009070010000000000000000000000000000000090046fffffffffffffffffffffffffffffffff1661137a600a61271061511a565b611385906001615131565b61138f9190615131565b90506127108111156113cd576040517f203d2aff00000000000000000000000000000000000000000000000000000000815260040160405180910390fd5b60006113d7613157565b905080831015611416576040517f0aa4c60100000000000000000000000000000000000000000000000000000000815260048101829052602401611204565b6000808267ffffffffffffffff81111561143257611432615149565b60405190808252806020026020018201604052801561145b578160200160208202803683370190505b5090506000805b848110156115de5787878281811061147c5761147c615178565b602002919091013592505061270782106114c5576040517f400316c100000000000000000000000000000000000000000000000000000000815260048101839052602401611204565b60008281526001602052604090205473ffffffffffffffffffffffffffffffffffffffff163314611552576040517f08c379a000000000000000000000000000000000000000000000000000000000815260206004820152600a60248201527f57524f4e475f46524f4d000000000000000000000000000000000000000000006044820152606401611204565b600082815260016020819052604090912080547fffffffffffffffffffffffff0000000000000000000000000000000000000000811690915584517c010000000000000000000000000000000000000000000000000000000090910463ffffffff1695909501948490839081106115cb576115cb615178565b6020908102919091010152600101611462565b50600033807f4a39dc06d4c0dbc64b70af90fd698a233a518aa5d07e595d983b8c0526c8f7fb61161088858c8e6151a7565b8760405161162093929190615224565b60405180910390a4600085815260016020526040902080547bffffffffffffffffffffffffffffffffffffffffffffffffffffffff167c01000000000000000000000000000000000000000000000000000000006002860263ffffffff160217905561168b33613002565b336000908152600b60205260409020805463ffffffff64010000000067ffffffffffffffff42811678010000000000000000000000000000000000000000000000000277ffffffffffffffffffffffffffffffffffffffffffffffff6fffffffffffffffffffffffffffffffff9790971668010000000000000000029690961693169290921793909317818104841687018416909102808416848316178890036001019093167fffffffffffffffffffffffffffffffffffffffffffffffffffffffff000000009093167fffffffffffffffffffffffffffffffffffffffffffffffff00000000000000009091161791909117905560026045048411156117955783600202611798565b60455b600980547001000000000000000000000000000000007fffffffffffffffffffffffffffffffff000000000000000000000000000000009091166effffffffffffffffffffffffffffff939093169283178190046fffffffffffffffffffffffffffffffff9081166001011602909117905584337f56e7b1c70e179662f7de80c019829fb46dc5fa24327dd1b60a080eb40fcc264861183a8760008b8d6151a7565b604051611848929190615283565b60405180910390a361186a338660405180602001604052806000815250613dd4565b5050505092915050565b8483146118dd576040517f08c379a000000000000000000000000000000000000000000000000000000000815260206004820152600f60248201527f4c454e4754485f4d49534d4154434800000000000000000000000000000000006044820152606401611204565b3373ffffffffffffffffffffffffffffffffffffffff8916148061192f575073ffffffffffffffffffffffffffffffffffffffff881660009081526020818152604080832033845290915290205460ff165b611995576040517f08c379a000000000000000000000000000000000000000000000000000000000815260206004820152600e60248201527f4e4f545f415554484f52495a45440000000000000000000000000000000000006044820152606401611204565b60008080805b88811015611b59578989828181106119b5576119b5615178565b9050602002013593508787828181106119d0576119d0615178565b6000878152600160209081526040909120549102929092013594505073ffffffffffffffffffffffffffffffffffffffff8d8116911614611a6d576040517f08c379a000000000000000000000000000000000000000000000000000000000815260206004820152600a60248201527f57524f4e475f46524f4d000000000000000000000000000000000000000000006044820152606401611204565b82600114611ad7576040517f08c379a000000000000000000000000000000000000000000000000000000000815260206004820152600e60248201527f494e56414c49445f414d4f554e540000000000000000000000000000000000006044820152606401611204565b600084815260016020819052604090912080547fffffffffffffffffffffffff00000000000000000000000000000000000000001673ffffffffffffffffffffffffffffffffffffffff8e1617908190557c0100000000000000000000000000000000000000000000000000000000900463ffffffff1692909201910161199b565b50611b668b8b838b613fae565b508873ffffffffffffffffffffffffffffffffffffffff168a73ffffffffffffffffffffffffffffffffffffffff163373ffffffffffffffffffffffffffffffffffffffff167f4a39dc06d4c0dbc64b70af90fd698a233a518aa5d07e595d983b8c0526c8f7fb8b8b8b8b604051611be1949392919061529f565b60405180910390a473ffffffffffffffffffffffffffffffffffffffff89163b15611d39576040517fbc197c81000000000000000000000000000000000000000000000000000000008082529073ffffffffffffffffffffffffffffffffffffffff8b169063bc197c8190611c689033908f908e908e908e908e908e908e9060040161531a565b6020604051808303816000875af1158015611c87573d6000803e3d6000fd5b505050506040513d601f19601f82011682018060405250810190611cab919061538b565b7fffffffff000000000000000000000000000000000000000000000000000000001614611d34576040517f08c379a000000000000000000000000000000000000000000000000000000000815260206004820152601060248201527f554e534146455f524543495049454e54000000000000000000000000000000006044820152606401611204565b611db6565b73ffffffffffffffffffffffffffffffffffffffff8916611db6576040517f08c379a000000000000000000000000000000000000000000000000000000000815260206004820152601160248201527f494e56414c49445f524543495049454e540000000000000000000000000000006044820152606401611204565b50505050505050505050565b3373ffffffffffffffffffffffffffffffffffffffff7f00000000000000000000000000000000000000000000000000000000000000001614611e33576040517fd86ad9cf000000000000000000000000000000000000000000000000000000008152336004820152602401611204565b611e3f82826001613c67565b5050565b6005600a611e556107d061271061511a565b611e5f919061511a565b611e6991906153a8565b81565b6005600a611e7e6107d061271061511a565b611e88919061511a565b611e9291906153a8565b600a611ea26107d061271061511a565b611eac919061511a565b611e69919061511a565b6060838214611f21576040517f08c379a000000000000000000000000000000000000000000000000000000000815260206004820152600f60248201527f4c454e4754485f4d49534d4154434800000000000000000000000000000000006044820152606401611204565b8367ffffffffffffffff811115611f3a57611f3a615149565b604051908082528060200260200182016040528015611f63578160200160208202803683370190505b50905060005b8481101561200257611fdd868683818110611f8657611f86615178565b9050602002016020810190611f9b9190614b75565b858584818110611fad57611fad615178565b9050602002013560009081526001602052604090205473ffffffffffffffffffffffffffffffffffffffff161490565b828281518110611fef57611fef615178565b6020908102919091010152600101611f69565b50949350505050565b6004805461201890614f9f565b80601f016020809104026020016040519081016040528092919081815260200182805461204490614f9f565b80156120915780601f1061206657610100808354040283529160200191612091565b820191906000526020600020905b81548152906001019060200180831161207457829003601f168201915b505050505081565b60088054600183901b0190819055600754600091906005906fffffffffffffffffffffffffffffffff168201048111156120ff576040517f1852d2df00000000000000000000000000000000000000000000000000000000815260040160405180910390fd5b5073ffffffffffffffffffffffffffffffffffffffff7f0000000000000000000000000000000000000000000000000000000000000000166000908152600b60205260408120805484929061215b90849063ffffffff166153e3565b82546101009290920a63ffffffff8181021990931691831602179091557f000000000000000000000000000000000000000000000000000000000000000073ffffffffffffffffffffffffffffffffffffffff166000908152600b60205260408120805486945090926121d0918591166153e3565b92506101000a81548163ffffffff021916908363ffffffff1602179055506122597f000000000000000000000000000000000000000000000000000000000000000083600760109054906101000a90046fffffffffffffffffffffffffffffffff166fffffffffffffffffffffffffffffffff16604051806020016040528060008152506141d4565b90506122967f00000000000000000000000000000000000000000000000000000000000000008383604051806020016040528060008152506141d4565b600780546fffffffffffffffffffffffffffffffff80841670010000000000000000000000000000000002911617905560405190915033907f21b25c9888af4b88b39d68ccd24ddcf61072b85f93e20a5fb3fa46ad2a334506906123069084908690918252602082015260400190565b60405180910390a2919050565b60025473ffffffffffffffffffffffffffffffffffffffff163314612394576040517f08c379a000000000000000000000000000000000000000000000000000000000815260206004820152600c60248201527f554e415554484f52495a454400000000000000000000000000000000000000006044820152606401611204565b600a547e01000000000000000000000000000000000000000000000000000000000000900460ff16156123f3576040517faacbcaa500000000000000000000000000000000000000000000000000000000815260040160405180910390fd5b600380547fffffffffffffffffffffffff00000000000000000000000000000000000000001673ffffffffffffffffffffffffffffffffffffffff831690811790915560405133907fb935ae081db04fbe2c80c7b2d69b4b8396f38acee91ddeb9f5edfe89044bf2ab90600090a350565b60006124f26124c0670de0b6b3a76400007f000000000000000000000000000000000000000000000000000000000000000085017f000000000000000000000000000000000000000000000000000000000000000005036144da565b7f0000000000000000000000000000000000000000000000000000000000000000670de0b6b3a7640000919091020590565b60000392915050565b600a5467ffffffffffffffff81169066ffffffffffffff70010000000000000000000000000000000082048116917701000000000000000000000000000000000000000000000081049091169060ff7e0100000000000000000000000000000000000000000000000000000000000090910416156125a5576040517faacbcaa500000000000000000000000000000000000000000000000000000000815260040160405180910390fd5b808411156125e2576040517fe6bdccb500000000000000000000000000000000000000000000000000000000815260048101829052602401611204565b60005b8481101561291d577fffffffffffffffffffffffffffffffffffffffffffffffffffffffffffffffff61270784900301600081868161262657612626615254565b06858101600190810160008181526020839052604081205492909801979293508792909167ffffffffffffffff7401000000000000000000000000000000000000000090910416156126a85760008281526001602052604090205474010000000000000000000000000000000000000000900467ffffffffffffffff166126aa565b815b60008481526001602052604081205491925073ffffffffffffffffffffffffffffffffffffffff82169174010000000000000000000000000000000000000000900467ffffffffffffffff16156127315760008581526001602052604090205474010000000000000000000000000000000000000000900467ffffffffffffffff16612733565b845b600086815260016020526040808220805473ffffffffffffffffffffffffffffffffffffffff167401000000000000000000000000000000000000000067ffffffffffffffff808a1682027bffffffffffffffffffffffffffffffffffffffffffffffffffffffff16929092177c0100000000000000000000000000000000000000000000000000000000610bef8b106116298c10611f1c8d10010160090363ffffffff811691909102919091179093558985529290932080547fffffffff0000000000000000ffffffffffffffffffffffffffffffffffffffff1693851690920292909217905590915061282783613002565b73ffffffffffffffffffffffffffffffffffffffff9093166000908152600b602090815260408220805463ffffffff64010000000067ffffffffffffffff42811678010000000000000000000000000000000000000000000000000277ffffffffffffffffffffffffffffffffffffffffffffffff6fffffffffffffffffffffffffffffffff9b909b1668010000000000000000029a909a1693811693909317989098178881048216909601169096027fffffffffffffffffffffffffffffffffffffffffffffffff00000000ffffffff909416939093179092559b8c52909a20169850505060019390930192506125e5915050565b50600a805485830366ffffffffffffff90811677010000000000000000000000000000000000000000000000027fffff00000000000000ffffffffffffffffffffffffffffffffffffffffffffff918616700100000000000000000000000000000000027fffffffffffffffffff00000000000000ffffffffffffffff000000000000000090931667ffffffffffffffff881617929092171617905560405133907f29b3d7b055ea49418c154824fb1c7e9d0b2ade54028bdf2bb86ec2c152d50508906129f69087908690918252602082015260400190565b60405180910390a250505050565b612a1033826001613c67565b6040517f73a98eb8000000000000000000000000000000000000000000000000000000008152336004820152602481018290527f000000000000000000000000000000000000000000000000000000000000000073ffffffffffffffffffffffffffffffffffffffff16906373a98eb890604401600060405180830381600087803b158015612a9e57600080fd5b505af1158015612ab2573d6000803e3d6000fd5b5050505050565b3360008181526020818152604080832073ffffffffffffffffffffffffffffffffffffffff87168085529083529281902080547fffffffffffffffffffffffffffffffffffffffffffffffffffffffffffffff001686151590811790915590519081529192917f17307eab39ab6107e8899845ad3d59bd9653f200f220920489ca2b5937696c31910160405180910390a35050565b6000427f00000000000000000000000000000000000000000000000000000000000000001115612baa576040517fdc0847d100000000000000000000000000000000000000000000000000000000815260040160405180910390fd5b3360009081526006602052604090205460ff1615612bf4576040517f646cf55800000000000000000000000000000000000000000000000000000000815260040160405180910390fd5b6040517fffffffffffffffffffffffffffffffffffffffff0000000000000000000000003360601b166020820152612c6a90849084907f00000000000000000000000000000000000000000000000000000000000000009060340160405160208183030381529060405280519060200120614798565b612ca0576040517f09bde33900000000000000000000000000000000000000000000000000000000815260040160405180910390fd5b5033600081815260066020908152604080832080547fffffffffffffffffffffffffffffffffffffffffffffffffffffffffffffff00166001908117909155600b909252808320805463ffffffff8082168501167fffffffffffffffffffffffffffffffffffffffffffffffffffffffff00000000909116179055600780546fffffffffffffffffffffffffffffffff700100000000000000000000000000000000808304821690950181169485029116179055519092839290917fdcaf83e788130088d0db84186fa9e819b95dad361b45111d1232abdcb170269c9190a3610e5c338260405180602001604052806000815250613dd4565b612da5600a6001615131565b6005600a612db76107d061271061511a565b612dc1919061511a565b612dcb91906153a8565b600a612ddb6107d061271061511a565b611e55919061511a565b600080612df0611125565b905083811115612e2f576040517f100e8e8400000000000000000000000000000000000000000000000000000000815260048101829052602401611204565b82612edf576040517f5f5a347d000000000000000000000000000000000000000000000000000000008152336004820152602481018290527f000000000000000000000000000000000000000000000000000000000000000073ffffffffffffffffffffffffffffffffffffffff1690635f5a347d90604401600060405180830381600087803b158015612ec257600080fd5b505af1158015612ed6573d6000803e3d6000fd5b50505050612eeb565b612eeb33826001613c67565b600780546fffffffffffffffffffffffffffffffff808216600190810182167fffffffffffffffffffffffffffffffff00000000000000000000000000000000909316929092178355336000818152600b602052604090819020805463ffffffff8082168701167fffffffffffffffffffffffffffffffffffffffffffffffffffffffff00000000909116179055845470010000000000000000000000000000000080820485169095018416948502931692909217909355519093508391907fb5f2881b4bfa5b331603accccda550cb5a421c7696237b28e2ec4d5669093d1e90612fd99085815260200190565b60405180910390a3612ffb338360405180602001604052806000815250613dd4565b5092915050565b73ffffffffffffffffffffffffffffffffffffffff81166000908152600b602052604081205473__$caef396688030deb683d0f87fdde328263$__90633ecf75e990640100000000810463ffffffff16906801000000000000000081046fffffffffffffffffffffffffffffffff16906130bb906130a6907801000000000000000000000000000000000000000000000000900467ffffffffffffffff164261511a565b62015180670de0b6b3a7640000919091020490565b6040517fffffffff0000000000000000000000000000000000000000000000000000000060e086901b16815263ffffffff9390931660048401526fffffffffffffffffffffffffffffffff90911660248301526044820152606401602060405180830381865af4158015613133573d6000803e3d6000fd5b505050506040513d601f19601f82011682018060405250810190610e5c919061540b565b6009546007546000916fffffffffffffffffffffffffffffffff80821692700100000000000000000000000000000000909204811691166001820161024502818111156131d4576040517f9db380340000000000000000000000000000000000000000000000000000000081528282036004820152602401611204565b6007546fffffffffffffffffffffffffffffffff1681900361024581106132015760009550505050505090565b61024581810386028181049190061515019550505050505090565b6005805461201890614f9f565b600a5460009068010000000000000000900467ffffffffffffffff164281111561327f576040517f600873b400000000000000000000000000000000000000000000000000000000815260040160405180910390fd5b600a5477010000000000000000000000000000000000000000000000900466ffffffffffffff16156132dd576040517f639dbd7300000000000000000000000000000000000000000000000000000000815260040160405180910390fd5b600a80547fff00ffffffffffffffffffffffffffffffffffffffffffffffffffffffffffff167e01000000000000000000000000000000000000000000000000000000000000179081905560075466ffffffffffffff70010000000000000000000000000000000092839004166fffffffffffffffffffffffffffffffff9290910482160316600081900361339e576040517f64c9800600000000000000000000000000000000000000000000000000000000815260040160405180910390fd5b600a80547fffff00000000000000ffffffffffffff0000000000000000ffffffffffffffff167701000000000000000000000000000000000000000000000066ffffffffffffff8416027fffffffffffffffffffffffffffffffff0000000000000000ffffffffffffffff16176801000000000000000062015180850167ffffffffffffffff160217905560405181815233907fc0412d082261082b733ae39d66dd3b4c4d14c47283f37f52dc3a3bb8a70efabe9060200160405180910390a250600360009054906101000a900473ffffffffffffffffffffffffffffffffffffffff1673ffffffffffffffffffffffffffffffffffffffff166395733bab6040518163ffffffff1660e01b81526004016020604051808303816000875af11580156134ce573d6000803e3d6000fd5b505050506040513d601f19601f82011682018060405250810190611181919061540b565b60008481526001602052604090205473ffffffffffffffffffffffffffffffffffffffff16338114613568576040517f70e6839e00000000000000000000000000000000000000000000000000000000815273ffffffffffffffffffffffffffffffffffffffff82166004820152602401611204565b3073ffffffffffffffffffffffffffffffffffffffff8516036135b7576040517ff92dd0b500000000000000000000000000000000000000000000000000000000815260040160405180910390fd5b6000858152600c6020908152604080832073ffffffffffffffffffffffffffffffffffffffff88168085529083528184208785528352928190208054600101905551858152879133917f9da0ebb97392a7c37f1ef43f07a98c9097fcaedb4d359ceb9ff7cae96c50f570910160405180910390a4816136c1576040517f23b872dd0000000000000000000000000000000000000000000000000000000081523360048201523060248201526044810184905273ffffffffffffffffffffffffffffffffffffffff8516906323b872dd90606401600060405180830381600087803b1580156136a457600080fd5b505af11580156136b8573d6000803e3d6000fd5b50505050612ab2565b6040517ff242432a000000000000000000000000000000000000000000000000000000008152336004820152306024820152604481018490526001606482015260a06084820152600060a482015273ffffffffffffffffffffffffffffffffffffffff85169063f242432a9060c401600060405180830381600087803b15801561374a57600080fd5b505af115801561375e573d6000803e3d6000fd5b505050505050505050565b3373ffffffffffffffffffffffffffffffffffffffff871614806137bb575073ffffffffffffffffffffffffffffffffffffffff861660009081526020818152604080832033845290915290205460ff165b613821576040517f08c379a000000000000000000000000000000000000000000000000000000000815260206004820152600e60248201527f4e4f545f415554484f52495a45440000000000000000000000000000000000006044820152606401611204565b60008481526001602052604090205473ffffffffffffffffffffffffffffffffffffffff8781169116146138b1576040517f08c379a000000000000000000000000000000000000000000000000000000000815260206004820152600a60248201527f57524f4e475f46524f4d000000000000000000000000000000000000000000006044820152606401611204565b8260011461391b576040517f08c379a000000000000000000000000000000000000000000000000000000000815260206004820152600e60248201527f494e56414c49445f414d4f554e540000000000000000000000000000000000006044820152606401611204565b600084815260016020819052604090912080547fffffffffffffffffffffffff00000000000000000000000000000000000000001673ffffffffffffffffffffffffffffffffffffffff881617908190556139a191889188917c010000000000000000000000000000000000000000000000000000000090910463ffffffff1690613fae565b604080518581526020810185905273ffffffffffffffffffffffffffffffffffffffff808816929089169133917fc3d58168c5ae7397731d063d5bbf3d657854427343f4c083240f7aacaa2d0f62910160405180910390a473ffffffffffffffffffffffffffffffffffffffff85163b15613b45576040517ff23a6e61000000000000000000000000000000000000000000000000000000008082529073ffffffffffffffffffffffffffffffffffffffff87169063f23a6e6190613a749033908b908a908a908a908a90600401615424565b6020604051808303816000875af1158015613a93573d6000803e3d6000fd5b505050506040513d601f19601f82011682018060405250810190613ab7919061538b565b7fffffffff000000000000000000000000000000000000000000000000000000001614613b40576040517f08c379a000000000000000000000000000000000000000000000000000000000815260206004820152601060248201527f554e534146455f524543495049454e54000000000000000000000000000000006044820152606401611204565b613bc2565b73ffffffffffffffffffffffffffffffffffffffff8516613bc2576040517f08c379a000000000000000000000000000000000000000000000000000000000815260206004820152601160248201527f494e56414c49445f524543495049454e540000000000000000000000000000006044820152606401611204565b505050505050565b6000613c487f0000000000000000000000000000000000000000000000000000000000000000613c43613c3e7f0000000000000000000000000000000000000000000000000000000000000000613c2d670de0b6b3a76400006001890102612464565b8803670de0b6b3a764000091020590565b6147d2565b614a11565b9392505050565b613c5c600a61271061511a565b611e69906001615131565b600080826001811115613c7c57613c7c615476565b14613c9a5782613c8b85613002565b613c95919061511a565b613cae565b82613ca485613002565b613cae9190615131565b73ffffffffffffffffffffffffffffffffffffffff85166000818152600b602052604090819020805467ffffffffffffffff42811678010000000000000000000000000000000000000000000000000277ffffffffffffffffffffffffffffffffffffffffffffffff6fffffffffffffffffffffffffffffffff8816680100000000000000000216919092161717905551919250907f2171f1d8b6b7927c42287fd11040aa8c3569c5c2040b8453104ced365ed84cd4906129f69084815260200190565b606060a06040510180604052602081039150506000815280825b600183039250600a81066030018353600a900480613d8c57508190037fffffffffffffffffffffffffffffffffffffffffffffffffffffffffffffffe0909101908152919050565b600082815260016020818152604080842080547fffffffffffffffffffffffff00000000000000000000000000000000000000001673ffffffffffffffffffffffffffffffffffffffff891690811790915581518781529283019390935291929133917fc3d58168c5ae7397731d063d5bbf3d657854427343f4c083240f7aacaa2d0f62910160405180910390a473ffffffffffffffffffffffffffffffffffffffff83163b15613fa9576040517ff23a6e61000000000000000000000000000000000000000000000000000000008082529073ffffffffffffffffffffffffffffffffffffffff85169063f23a6e6190613edd903390600090889060019089906004016154a5565b6020604051808303816000875af1158015613efc573d6000803e3d6000fd5b505050506040513d601f19601f82011682018060405250810190613f20919061538b565b7fffffffff000000000000000000000000000000000000000000000000000000001614613fa9576040517f08c379a000000000000000000000000000000000000000000000000000000000815260206004820152601060248201527f554e534146455f524543495049454e54000000000000000000000000000000006044820152606401611204565b505050565b613fb784613002565b73ffffffffffffffffffffffffffffffffffffffff85166000908152600b60205260409020805463ffffffff64010000000067ffffffffffffffff42811678010000000000000000000000000000000000000000000000000277ffffffffffffffffffffffffffffffffffffffffffffffff6fffffffffffffffffffffffffffffffff979097166801000000000000000002969096169316929092179390931781810484168690038416909102808416848316178590039093167fffffffffffffffffffffffffffffffffffffffffffffffffffffffff000000009093167fffffffffffffffffffffffffffffffffffffffffffffffff0000000000000000909116179190911790556140c983613002565b73ffffffffffffffffffffffffffffffffffffffff9093166000908152600b60205260409020805463ffffffff64010000000067ffffffffffffffff42811678010000000000000000000000000000000000000000000000000277ffffffffffffffffffffffffffffffffffffffffffffffff6fffffffffffffffffffffffffffffffff99909916680100000000000000000298909816931692909217959095178181048616909401851602808516858516179092019093167fffffffffffffffffffffffffffffffffffffffffffffffffffffffff000000009091167fffffffffffffffffffffffffffffffffffffffffffffffff00000000000000009092169190911717905550565b6000808467ffffffffffffffff8111156141f0576141f0615149565b604051908082528060200260200182016040528015614219578160200160208202803683370190505b50905060008567ffffffffffffffff81111561423757614237615149565b604051908082528060200260200182016040528015614260578160200160208202803683370190505b50905060005b86811015614309578560010195508583828151811061428757614287615178565b60200260200101818152505060018282815181106142a7576142a7615178565b60209081029190910181019190915260008781526001918290526040902080547fffffffffffffffffffffffff00000000000000000000000000000000000000001673ffffffffffffffffffffffffffffffffffffffff8b1617905501614266565b508673ffffffffffffffffffffffffffffffffffffffff16600073ffffffffffffffffffffffffffffffffffffffff163373ffffffffffffffffffffffffffffffffffffffff167f4a39dc06d4c0dbc64b70af90fd698a233a518aa5d07e595d983b8c0526c8f7fb85856040516143819291906154ea565b60405180910390a473ffffffffffffffffffffffffffffffffffffffff87163b156144cf576040517fbc197c81000000000000000000000000000000000000000000000000000000008082529073ffffffffffffffffffffffffffffffffffffffff89169063bc197c8190614403903390600090889088908c9060040161550f565b6020604051808303816000875af1158015614422573d6000803e3d6000fd5b505050506040513d601f19601f82011682018060405250810190614446919061538b565b7fffffffff0000000000000000000000000000000000000000000000000000000016146144cf576040517f08c379a000000000000000000000000000000000000000000000000000000000815260206004820152601060248201527f554e534146455f524543495049454e54000000000000000000000000000000006044820152606401611204565b509295945050505050565b6000808213614545576040517f08c379a000000000000000000000000000000000000000000000000000000000815260206004820152600960248201527f554e444546494e454400000000000000000000000000000000000000000000006044820152606401611204565b5060606fffffffffffffffffffffffffffffffff821160071b82811c67ffffffffffffffff1060061b1782811c63ffffffff1060051b1782811c61ffff1060041b1782811c60ff10600390811b90911783811c600f1060021b1783811c909110600190811b90911783811c90911017609f81810383019390931b90921c6c465772b2bbbb5f824b15207a3081018102821d6d0388eaa27412d5aca026815d636e018102821d6d0df99ac502031bf953eff472fdcc018102821d6d13cdffb29d51d99322bdff5f2211018102821d6d0a0f742023def783a307a986912e018102821d6d01920d8043ca89b5239253284e42018102821d6c0b7a86d7375468fac667a0a527016c29508e458543d8aa4df2abee7882018202831d6d0139601a2efabe717e604cbb4894018202831d6d02247f7a7b6594320649aa03aba1018202831d7fffffffffffffffffffffffffffffffffffffff73c0c716a594e00d54e3c4cbc9018202831d7ffffffffffffffffffffffffffffffffffffffdc7b88c420e53a9890533129f6f01820290921d7fffffffffffffffffffffffffffffffffffffff465fda27eb4d63ded474e5f83201027ffffffffffffffff5f6af8f7b3396644f18e157960000000000000000000000000105711340daa0d5f769dba1915cef59f0815a5506027fffffffffffffffffffffffffffffffffffffffffffffffffffffffffffffffa0919091017d0267a36c0c95b3975ab3ee5b203a7614a3f75373f047d803ae7b6687f2b302017d57115e47018c7177eebf7cd370a3356a1b7863008a5ae8028c72b88642840160ae1d90565b600083156147ca578360051b8501855b803580851160051b948552602094851852604060002093018181106147a85750505b501492915050565b60007ffffffffffffffffffffffffffffffffffffffffffffffffdb731c958f34d94c1821361480357506000919050565b680755bf798b4a1bf1e58212614875576040517f08c379a000000000000000000000000000000000000000000000000000000000815260206004820152600c60248201527f4558505f4f564552464c4f5700000000000000000000000000000000000000006044820152606401611204565b6503782dace9d9604e83901b059150600060606bb17217f7d1cf79abc9e3b39884821b056b80000000000000000000000001901d6bb17217f7d1cf79abc9e3b39881029093037fffffffffffffffffffffffffffffffffffffffdbf3ccf1604d263450f02a550481018102606090811d6d0277594991cfc85f6e2461837cd9018202811d7fffffffffffffffffffffffffffffffffffffe5adedaa1cb095af9e4da10e363c018202811d6db1bbb201f443cf962f1a1d3db4a5018202811d7ffffffffffffffffffffffffffffffffffffd38dc772608b0ae56cce01296c0eb018202811d6e05180bb14799ab47a8a8cb2a527d57016d02d16720577bd19bf614176fe9ea6c10fe68e7fd37d0007b713f765084018402831d9081019084017ffffffffffffffffffffffffffffffffffffffe2c69812cf03b0763fd454a8f7e010290911d6e0587f503bb6ea29d25fcb7401964500190910279d835ebba824c98fb31b83b2ca45c000000000000000000000000010574029d9dc38563c32e5c2f6dc192ee70ef65f9978af30260c3939093039290921c92915050565b8181028215838205831417614a2557600080fd5b670de0b6b3a7640000900592915050565b73ffffffffffffffffffffffffffffffffffffffff81168114610f1457600080fd5b60008060408385031215614a6b57600080fd5b8235614a7681614a36565b946020939093013593505050565b7fffffffff0000000000000000000000000000000000000000000000000000000081168114610f1457600080fd5b600060208284031215614ac457600080fd5b8135613c4881614a84565b60005b83811015614aea578181015183820152602001614ad2565b83811115614af9576000848401525b50505050565b60008151808452614b17816020860160208601614acf565b601f017fffffffffffffffffffffffffffffffffffffffffffffffffffffffffffffffe0169290920160200192915050565b602081526000613c486020830184614aff565b600060208284031215614b6e57600080fd5b5035919050565b600060208284031215614b8757600080fd5b8135613c4881614a36565b60008060408385031215614ba557600080fd5b50508035926020909101359150565b60008083601f840112614bc657600080fd5b50813567ffffffffffffffff811115614bde57600080fd5b6020830191508360208260051b8501011115614bf957600080fd5b9250929050565b60008060208385031215614c1357600080fd5b823567ffffffffffffffff811115614c2a57600080fd5b614c3685828601614bb4565b90969095509350505050565b60008083601f840112614c5457600080fd5b50813567ffffffffffffffff811115614c6c57600080fd5b602083019150836020828501011115614bf957600080fd5b60008060008060008060008060a0898b031215614ca057600080fd5b8835614cab81614a36565b97506020890135614cbb81614a36565b9650604089013567ffffffffffffffff80821115614cd857600080fd5b614ce48c838d01614bb4565b909850965060608b0135915080821115614cfd57600080fd5b614d098c838d01614bb4565b909650945060808b0135915080821115614d2257600080fd5b50614d2f8b828c01614c42565b999c989b5096995094979396929594505050565b60008060008060408587031215614d5957600080fd5b843567ffffffffffffffff80821115614d7157600080fd5b614d7d88838901614bb4565b90965094506020870135915080821115614d9657600080fd5b50614da387828801614bb4565b95989497509550505050565b600081518084526020808501945080840160005b83811015614ddf57815187529582019590820190600101614dc3565b509495945050505050565b602081526000613c486020830184614daf565b600080600060608486031215614e1257600080fd5b833592506020840135614e2481614a36565b929592945050506040919091013590565b80358015158114614e4557600080fd5b919050565b60008060408385031215614e5d57600080fd5b8235614e6881614a36565b9150614e7660208401614e35565b90509250929050565b60008060408385031215614e9257600080fd5b82359150614e7660208401614e35565b60008060408385031215614eb557600080fd5b8235614ec081614a36565b91506020830135614ed081614a36565b809150509250929050565b60008060008060808587031215614ef157600080fd5b843593506020850135614f0381614a36565b925060408501359150614f1860608601614e35565b905092959194509250565b60008060008060008060a08789031215614f3c57600080fd5b8635614f4781614a36565b95506020870135614f5781614a36565b94506040870135935060608701359250608087013567ffffffffffffffff811115614f8157600080fd5b614f8d89828a01614c42565b979a9699509497509295939492505050565b600181811c90821680614fb357607f821691505b602082108103614fec577f4e487b7100000000000000000000000000000000000000000000000000000000600052602260045260246000fd5b50919050565b60008151615004818560208601614acf565b9290920192915050565b600080845481600182811c91508083168061502a57607f831692505b60208084108203615062577f4e487b710000000000000000000000000000000000000000000000000000000086526022600452602486fd5b81801561507657600181146150a5576150d2565b7fffffffffffffffffffffffffffffffffffffffffffffffffffffffffffffff008616895284890196506150d2565b60008b81526020902060005b868110156150ca5781548b8201529085019083016150b1565b505084890196505b5050505050506150e28185614ff2565b95945050505050565b7f4e487b7100000000000000000000000000000000000000000000000000000000600052601160045260246000fd5b60008282101561512c5761512c6150eb565b500390565b60008219821115615144576151446150eb565b500190565b7f4e487b7100000000000000000000000000000000000000000000000000000000600052604160045260246000fd5b7f4e487b7100000000000000000000000000000000000000000000000000000000600052603260045260246000fd5b600080858511156151b757600080fd5b838611156151c457600080fd5b5050600583901b0193919092039150565b81835260007f07ffffffffffffffffffffffffffffffffffffffffffffffffffffffffffffff83111561520757600080fd5b8260051b8083602087013760009401602001938452509192915050565b6040815260006152386040830185876151d5565b828103602084015261524a8185614daf565b9695505050505050565b7f4e487b7100000000000000000000000000000000000000000000000000000000600052601260045260246000fd5b6020815260006152976020830184866151d5565b949350505050565b6040815260006152b36040830186886151d5565b82810360208401526152c68185876151d5565b979650505050505050565b8183528181602085013750600060208284010152600060207fffffffffffffffffffffffffffffffffffffffffffffffffffffffffffffffe0601f840116840101905092915050565b600073ffffffffffffffffffffffffffffffffffffffff808b168352808a1660208401525060a0604083015261535460a08301888a6151d5565b82810360608401526153678187896151d5565b9050828103608084015261537c8185876152d1565b9b9a5050505050505050505050565b60006020828403121561539d57600080fd5b8151613c4881614a84565b6000826153de577f4e487b7100000000000000000000000000000000000000000000000000000000600052601260045260246000fd5b500490565b600063ffffffff808316818516808303821115615402576154026150eb565b01949350505050565b60006020828403121561541d57600080fd5b5051919050565b600073ffffffffffffffffffffffffffffffffffffffff808916835280881660208401525085604083015284606083015260a0608083015261546a60a0830184866152d1565b98975050505050505050565b7f4e487b7100000000000000000000000000000000000000000000000000000000600052602160045260246000fd5b600073ffffffffffffffffffffffffffffffffffffffff808816835280871660208401525084604083015283606083015260a060808301526152c660a0830184614aff565b6040815260006154fd6040830185614daf565b82810360208401526150e28185614daf565b600073ffffffffffffffffffffffffffffffffffffffff808816835280871660208401525060a0604083015261554860a0830186614daf565b828103606084015261555a8186614daf565b9050828103608084015261546a8185614aff56fea164736f6c634300080d000a",
    "linkReferences": {
      "lib/goo-issuance/src/LibGOO.sol": {
        "LibGOO": [
          {
            "start": 14868,
            "length": 20
          }
        ]
      }
    }
  },
  "methodIdentifiers": {
    "BASE_URI()": "dbddb26a",
    "FIRST_LEGENDARY_GOBBLER_ID()": "f5a9fed4",
    "LEGENDARY_AUCTION_INTERVAL()": "c23d2bf6",
    "LEGENDARY_GOBBLER_INITIAL_START_PRICE()": "37e478f5",
    "LEGENDARY_SUPPLY()": "6ab65915",
    "MAX_MINTABLE()": "3f879faf",
    "MAX_SUPPLY()": "32cb6b0c",
    "MINTLIST_SUPPLY()": "c911c1b4",
    "RESERVED_SUPPLY()": "31a53e9a",
    "UNREVEALED_URI()": "507862d1",
    "acceptRandomSeed(bytes32,uint256)": "13b45a47",
    "addGoo(uint256)": "0b38049f",
    "balanceOf(address,uint256)": "00fdd58e",
    "balanceOfBatch(address[],uint256[])": "4e1273f4",
    "burnGooForPages(address,uint256)": "2f689b85",
    "claimGobbler(bytes32[])": "acede5fd",
    "community()": "dc1fb5a5",
    "currentNonLegendaryId()": "ca8165a1",
    "feedArt(uint256,address,uint256,bool)": "ea6eae3c",
    "getCopiesOfArtFedToGobbler(uint256,address,uint256)": "620927fd",
    "getGobblerData(uint256)": "93bf6517",
    "getGobblerEmissionMultiple(uint256)": "fa522a15",
    "getGobblersOwnedByUser(address)": "9eebea0c",
    "getTargetSaleTime(int256)": "6d9d33b7",
    "getUserData(address)": "ffc9896b",
    "getUserEmissionMultiple(address)": "11f93e78",
    "getVRGDAPrice(int256,uint256)": "f466d4ab",
    "gobblerPrice()": "10f255f5",
    "gobblerRevealsData()": "1c134fae",
    "goo()": "274cdd5c",
    "gooBalance(address)": "d075fbba",
    "hasClaimedMintlistGobbler(address)": "8493a7ad",
    "isApprovedForAll(address,address)": "e985e9c5",
    "legendaryGobblerAuctionData()": "29afcaf7",
    "legendaryGobblerPrice()": "d71d672f",
    "logisticLimit()": "33ed4c59",
    "logisticLimitDoubled()": "85865053",
    "merkleRoot()": "2eb4a7ab",
    "mintFromGoo(uint256,bool)": "c9bddac6",
    "mintLegendaryGobbler(uint256[])": "201db8dd",
    "mintReservedGobblers(uint256)": "65ca58b8",
    "mintStart()": "255e4685",
    "name()": "06fdde03",
    "numMintedForReserves()": "0697e173",
    "numMintedFromGoo()": "fdfb91d0",
    "onERC1155BatchReceived(address,address,uint256[],uint256[],bytes)": "bc197c81",
    "onERC1155Received(address,address,uint256,uint256,bytes)": "f23a6e61",
    "owner()": "8da5cb5b",
    "ownerOf(uint256)": "6352211e",
    "pages()": "66be185f",
    "randProvider()": "184c404d",
    "removeGoo(uint256)": "9cc397fb",
    "requestRandomSeed()": "e1da26c6",
    "revealGobblers(uint256)": "743ee994",
    "safeBatchTransferFrom(address,address,uint256[],uint256[],bytes)": "2eb2c2d6",
    "safeTransferFrom(address,address,uint256,uint256,bytes)": "f242432a",
    "setApprovalForAll(address,bool)": "a22cb465",
    "setOwner(address)": "13af4035",
    "supportsInterface(bytes4)": "01ffc9a7",
    "targetPrice()": "dc38679c",
    "team()": "85f2aef2",
    "upgradeRandProvider(address)": "6d9856e5",
    "uri(uint256)": "0e89341c"
  },
  "id": 29
}