{
  "abi": [
    {
      "inputs": [
        {
          "internalType": "address",
          "name": "linkAddress",
          "type": "address"
        }
      ],
      "stateMutability": "nonpayable",
      "type": "constructor"
    },
    {
      "anonymous": false,
      "inputs": [
        {
          "indexed": true,
          "internalType": "address",
          "name": "sender",
          "type": "address"
        },
        {
          "indexed": true,
          "internalType": "bytes32",
          "name": "keyHash",
          "type": "bytes32"
        },
        {
          "indexed": true,
          "internalType": "uint256",
          "name": "seed",
          "type": "uint256"
        }
      ],
      "name": "RandomnessRequest",
      "type": "event"
    },
    {
      "inputs": [],
      "name": "LINK",
      "outputs": [
        {
          "internalType": "contract LinkTokenInterface",
          "name": "",
          "type": "address"
        }
      ],
      "stateMutability": "view",
      "type": "function"
    },
    {
      "inputs": [
        {
          "internalType": "bytes32",
          "name": "requestId",
          "type": "bytes32"
        },
        {
          "internalType": "uint256",
          "name": "randomness",
          "type": "uint256"
        },
        {
          "internalType": "address",
          "name": "consumerContract",
          "type": "address"
        }
      ],
      "name": "callBackWithRandomness",
      "outputs": [],
      "stateMutability": "nonpayable",
      "type": "function"
    },
    {
      "inputs": [
        {
          "internalType": "address",
          "name": "sender",
          "type": "address"
        },
        {
          "internalType": "uint256",
          "name": "fee",
          "type": "uint256"
        },
        {
          "internalType": "bytes",
          "name": "_data",
          "type": "bytes"
        }
      ],
      "name": "onTokenTransfer",
      "outputs": [],
      "stateMutability": "nonpayable",
      "type": "function"
    }
  ],
  "bytecode": {
    "object": "0x608060405234801561001057600080fd5b5060405161056c38038061056c83398101604081905261002f91610054565b600080546001600160a01b0319166001600160a01b0392909216919091179055610084565b60006020828403121561006657600080fd5b81516001600160a01b038116811461007d57600080fd5b9392505050565b6104d9806100936000396000f3fe608060405234801561001057600080fd5b50600436106100415760003560e01c80631b6b6d2314610046578063a4c0ed361461008f578063cf55fe97146100a4575b600080fd5b6000546100669073ffffffffffffffffffffffffffffffffffffffff1681565b60405173ffffffffffffffffffffffffffffffffffffffff909116815260200160405180910390f35b6100a261009d36600461034f565b6100b7565b005b6100a26100b2366004610438565b6101a4565b60005473ffffffffffffffffffffffffffffffffffffffff16331461013d576040517f08c379a000000000000000000000000000000000000000000000000000000000815260206004820152601360248201527f4d75737420757365204c494e4b20746f6b656e0000000000000000000000000060448201526064015b60405180910390fd5b60008082806020019051810190610154919061046d565b9150915080828673ffffffffffffffffffffffffffffffffffffffff167f7a9a0a6960d95b32cded93c30e63e7c2eb9e877230813c172110ea54dc1c915c60405160405180910390a45050505050565b604080516024810185905260448082018590528251808303909101815260649091019091526020810180517bffffffffffffffffffffffffffffffffffffffffffffffffffffffff167f94985ddd00000000000000000000000000000000000000000000000000000000179052600090620324b0805a1015610282576040517f08c379a000000000000000000000000000000000000000000000000000000000815260206004820152601b60248201527f6e6f7420656e6f7567682067617320666f7220636f6e73756d657200000000006044820152606401610134565b60008473ffffffffffffffffffffffffffffffffffffffff16836040516102a99190610491565b6000604051808303816000865af19150503d80600081146102e6576040519150601f19603f3d011682016040523d82523d6000602084013e6102eb565b606091505b50505050505050505050565b803573ffffffffffffffffffffffffffffffffffffffff8116811461031b57600080fd5b919050565b7f4e487b7100000000000000000000000000000000000000000000000000000000600052604160045260246000fd5b60008060006060848603121561036457600080fd5b61036d846102f7565b925060208401359150604084013567ffffffffffffffff8082111561039157600080fd5b818601915086601f8301126103a557600080fd5b8135818111156103b7576103b7610320565b604051601f82017fffffffffffffffffffffffffffffffffffffffffffffffffffffffffffffffe0908116603f011681019083821181831017156103fd576103fd610320565b8160405282815289602084870101111561041657600080fd5b8260208601602083013760006020848301015280955050505050509250925092565b60008060006060848603121561044d57600080fd5b8335925060208401359150610464604085016102f7565b90509250925092565b6000806040838503121561048057600080fd5b505080516020909101519092909150565b6000825160005b818110156104b25760208186018101518583015201610498565b818111156104c1576000828501525b50919091019291505056fea164736f6c634300080d000a",
    "linkReferences": {}
  },
  "methodIdentifiers": {
    "LINK()": "1b6b6d23",
    "callBackWithRandomness(bytes32,uint256,address)": "cf55fe97",
    "onTokenTransfer(address,uint256,bytes)": "a4c0ed36"
  },
  "id": 3
}