{
  "abi": [
    {
      "inputs": [
        {
          "internalType": "contract ArtGobblers",
          "name": "_artGobblers",
          "type": "address"
        },
        {
          "internalType": "address",
          "name": "_owner",
          "type": "address"
        }
      ],
      "stateMutability": "nonpayable",
      "type": "constructor"
    },
    {
      "anonymous": false,
      "inputs": [
        {
          "indexed": true,
          "internalType": "address",
          "name": "user",
          "type": "address"
        },
        {
          "indexed": true,
          "internalType": "address",
          "name": "newOwner",
          "type": "address"
        }
      ],
      "name": "OwnerUpdated",
      "type": "event"
    },
    {
      "inputs": [],
      "name": "artGobblers",
      "outputs": [
        {
          "internalType": "contract ArtGobblers",
          "name": "",
          "type": "address"
        }
      ],
      "stateMutability": "view",
      "type": "function"
    },
    {
      "inputs": [
        {
          "internalType": "address",
          "name": "",
          "type": "address"
        },
        {
          "internalType": "address",
          "name": "",
          "type": "address"
        },
        {
          "internalType": "uint256[]",
          "name": "",
          "type": "uint256[]"
        },
        {
          "internalType": "uint256[]",
          "name": "",
          "type": "uint256[]"
        },
        {
          "internalType": "bytes",
          "name": "",
          "type": "bytes"
        }
      ],
      "name": "onERC1155BatchReceived",
      "outputs": [
        {
          "internalType": "bytes4",
          "name": "",
          "type": "bytes4"
        }
      ],
      "stateMutability": "nonpayable",
      "type": "function"
    },
    {
      "inputs": [
        {
          "internalType": "address",
          "name": "",
          "type": "address"
        },
        {
          "internalType": "address",
          "name": "",
          "type": "address"
        },
        {
          "internalType": "uint256",
          "name": "",
          "type": "uint256"
        },
        {
          "internalType": "uint256",
          "name": "",
          "type": "uint256"
        },
        {
          "internalType": "bytes",
          "name": "",
          "type": "bytes"
        }
      ],
      "name": "onERC1155Received",
      "outputs": [
        {
          "internalType": "bytes4",
          "name": "",
          "type": "bytes4"
        }
      ],
      "stateMutability": "nonpayable",
      "type": "function"
    },
    {
      "inputs": [],
      "name": "owner",
      "outputs": [
        {
          "internalType": "address",
          "name": "",
          "type": "address"
        }
      ],
      "stateMutability": "view",
      "type": "function"
    },
    {
      "inputs": [
        {
          "internalType": "address",
          "name": "newOwner",
          "type": "address"
        }
      ],
      "name": "setOwner",
      "outputs": [],
      "stateMutability": "nonpayable",
      "type": "function"
    },
    {
      "inputs": [
        {
          "internalType": "address",
          "name": "to",
          "type": "address"
        },
        {
          "internalType": "uint256[]",
          "name": "ids",
          "type": "uint256[]"
        },
        {
          "internalType": "uint256[]",
          "name": "amounts",
          "type": "uint256[]"
        }
      ],
      "name": "withdraw",
      "outputs": [],
      "stateMutability": "nonpayable",
      "type": "function"
    }
  ],
  "bytecode": {
    "object": "0x60a060405234801561001057600080fd5b5060405161083338038061083383398101604081905261002f916100a2565b600080546001600160a01b0319166001600160a01b03831690811782556040518392907f8292fce18fa69edf4db7b94ea2e58241df0ae57f97e0a6c9b29067028bf92d76908290a350506001600160a01b03166080526100dc565b6001600160a01b038116811461009f57600080fd5b50565b600080604083850312156100b557600080fd5b82516100c08161008a565b60208401519092506100d18161008a565b809150509250929050565b6080516107366100fd600039600081816091015261036901526107366000f3fe608060405234801561001057600080fd5b50600436106100725760003560e01c80639339b0a0116100505780639339b0a0146100fd578063bc197c8114610110578063f23a6e611461017c57600080fd5b806313af4035146100775780631d1c9e591461008c5780638da5cb5b146100dd575b600080fd5b61008a61008536600461040a565b6101b5565b005b6100b37f000000000000000000000000000000000000000000000000000000000000000081565b60405173ffffffffffffffffffffffffffffffffffffffff90911681526020015b60405180910390f35b6000546100b39073ffffffffffffffffffffffffffffffffffffffff1681565b61008a61010b366004610478565b6102ab565b61014b61011e36600461053b565b7fbc197c810000000000000000000000000000000000000000000000000000000098975050505050505050565b6040517fffffffff0000000000000000000000000000000000000000000000000000000090911681526020016100d4565b61014b61018a3660046105f6565b7ff23a6e61000000000000000000000000000000000000000000000000000000009695505050505050565b60005473ffffffffffffffffffffffffffffffffffffffff16331461023b576040517f08c379a000000000000000000000000000000000000000000000000000000000815260206004820152600c60248201527f554e415554484f52495a4544000000000000000000000000000000000000000060448201526064015b60405180910390fd5b600080547fffffffffffffffffffffffff00000000000000000000000000000000000000001673ffffffffffffffffffffffffffffffffffffffff83169081178255604051909133917f8292fce18fa69edf4db7b94ea2e58241df0ae57f97e0a6c9b29067028bf92d769190a350565b60005473ffffffffffffffffffffffffffffffffffffffff16331461032c576040517f08c379a000000000000000000000000000000000000000000000000000000000815260206004820152600c60248201527f554e415554484f52495a454400000000000000000000000000000000000000006044820152606401610232565b6040517f2eb2c2d600000000000000000000000000000000000000000000000000000000815273ffffffffffffffffffffffffffffffffffffffff7f00000000000000000000000000000000000000000000000000000000000000001690632eb2c2d6906103a8903090899089908990899089906004016106bd565b600060405180830381600087803b1580156103c257600080fd5b505af11580156103d6573d6000803e3d6000fd5b505050505050505050565b803573ffffffffffffffffffffffffffffffffffffffff8116811461040557600080fd5b919050565b60006020828403121561041c57600080fd5b610425826103e1565b9392505050565b60008083601f84011261043e57600080fd5b50813567ffffffffffffffff81111561045657600080fd5b6020830191508360208260051b850101111561047157600080fd5b9250929050565b60008060008060006060868803121561049057600080fd5b610499866103e1565b9450602086013567ffffffffffffffff808211156104b657600080fd5b6104c289838a0161042c565b909650945060408801359150808211156104db57600080fd5b506104e88882890161042c565b969995985093965092949392505050565b60008083601f84011261050b57600080fd5b50813567ffffffffffffffff81111561052357600080fd5b60208301915083602082850101111561047157600080fd5b60008060008060008060008060a0898b03121561055757600080fd5b610560896103e1565b975061056e60208a016103e1565b9650604089013567ffffffffffffffff8082111561058b57600080fd5b6105978c838d0161042c565b909850965060608b01359150808211156105b057600080fd5b6105bc8c838d0161042c565b909650945060808b01359150808211156105d557600080fd5b506105e28b828c016104f9565b999c989b5096995094979396929594505050565b60008060008060008060a0878903121561060f57600080fd5b610618876103e1565b9550610626602088016103e1565b94506040870135935060608701359250608087013567ffffffffffffffff81111561065057600080fd5b61065c89828a016104f9565b979a9699509497509295939492505050565b81835260007f07ffffffffffffffffffffffffffffffffffffffffffffffffffffffffffffff8311156106a057600080fd5b8260051b8083602087013760009401602001938452509192915050565b600073ffffffffffffffffffffffffffffffffffffffff808916835280881660208401525060a060408301526106f760a08301868861066e565b828103606084015261070a81858761066e565b838103608090940193909352505060008152602001969550505050505056fea164736f6c634300080d000a",
    "linkReferences": {}
  },
  "methodIdentifiers": {
    "artGobblers()": "1d1c9e59",
    "onERC1155BatchReceived(address,address,uint256[],uint256[],bytes)": "bc197c81",
    "onERC1155Received(address,address,uint256,uint256,bytes)": "f23a6e61",
    "owner()": "8da5cb5b",
    "setOwner(address)": "13af4035",
    "withdraw(address,uint256[],uint256[])": "9339b0a0"
  },
  "id": 33
}