{
  "abi": [
    {
      "inputs": [
        {
          "internalType": "uint256",
          "name": "emissionMultiple",
          "type": "uint256"
        },
        {
          "internalType": "uint256",
          "name": "lastBalanceWad",
          "type": "uint256"
        },
        {
          "internalType": "uint256",
          "name": "timeElapsedWad",
          "type": "uint256"
        }
      ],
      "name": "computeGOOBalance",
      "outputs": [
        {
          "internalType": "uint256",
          "name": "",
          "type": "uint256"
        }
      ],
      "stateMutability": "pure",
      "type": "function"
    }
  ],
  "bytecode": {
    "object": "0x6101c561003a600b82828239805160001a60731461002d57634e487b7160e01b600052600060045260246000fd5b30600052607381538281f3fe73000000000000000000000000000000000000000030146080604052600436106100355760003560e01c80633ecf75e91461003a575b600080fd5b61004d61004836600461018c565b61005f565b60405190815260200160405180910390f35b60008061006c838061009f565b905061008d610086858702670de0b6b3a7640000026100bb565b849061009f565b90850260021c84010190509392505050565b60006100b48383670de0b6b3a764000061016d565b9392505050565b60b5817101000000000000000000000000000000000081106100e25760409190911b9060801c5b690100000000000000000081106100fe5760209190911b9060401c5b6501000000000081106101165760109190911b9060201c5b6301000000811061012c5760089190911b9060101c5b62010000010260121c80820401600190811c80830401811c80830401811c80830401811c80830401811c80830401811c80830401901c908190048111900390565b82820281151584158583048514171661018557600080fd5b0492915050565b6000806000606084860312156101a157600080fd5b50508135936020830135935060409092013591905056fea164736f6c634300080d000a",
    "linkReferences": {}
  },
  "methodIdentifiers": {
    "computeGOOBalance(uint256,uint256,uint256)": "3ecf75e9"
  },
  "id": 14
}