{
  "abi": [
    {
      "inputs": [
        {
          "internalType": "contract ArtGobblers",
          "name": "_artGobblers",
          "type": "address"
        },
        {
          "internalType": "address",
          "name": "_vrfCoordinator",
          "type": "address"
        },
        {
          "internalType": "address",
          "name": "_linkToken",
          "type": "address"
        },
        {
          "internalType": "bytes32",
          "name": "_chainlinkKeyHash",
          "type": "bytes32"
        },
        {
          "internalType": "uint256",
          "name": "_chainlinkFee",
          "type": "uint256"
        }
      ],
      "stateMutability": "nonpayable",
      "type": "constructor"
    },
    {
      "inputs": [],
      "name": "NotGobblers",
      "type": "error"
    },
    {
      "anonymous": false,
      "inputs": [
        {
          "indexed": false,
          "internalType": "bytes32",
          "name": "requestId",
          "type": "bytes32"
        }
      ],
      "name": "RandomBytesRequested",
      "type": "event"
    },
    {
      "anonymous": false,
      "inputs": [
        {
          "indexed": false,
          "internalType": "bytes32",
          "name": "requestId",
          "type": "bytes32"
        },
        {
          "indexed": false,
          "internalType": "uint256",
          "name": "randomness",
          "type": "uint256"
        }
      ],
      "name": "RandomBytesReturned",
      "type": "event"
    },
    {
      "inputs": [],
      "name": "artGobblers",
      "outputs": [
        {
          "internalType": "contract ArtGobblers",
          "name": "",
          "type": "address"
        }
      ],
      "stateMutability": "view",
      "type": "function"
    },
    {
      "inputs": [
        {
          "internalType": "bytes32",
          "name": "requestId",
          "type": "bytes32"
        },
        {
          "internalType": "uint256",
          "name": "randomness",
          "type": "uint256"
        }
      ],
      "name": "rawFulfillRandomness",
      "outputs": [],
      "stateMutability": "nonpayable",
      "type": "function"
    },
    {
      "inputs": [],
      "name": "requestRandomBytes",
      "outputs": [
        {
          "internalType": "bytes32",
          "name": "requestId",
          "type": "bytes32"
        }
      ],
      "stateMutability": "nonpayable",
      "type": "function"
    }
  ],
  "bytecode": {
    "object": "0x61012060405234801561001157600080fd5b5060405161072738038061072783398101604081905261003091610072565b6001600160a01b0393841660a0529183166080529290911660c05260e091909152610100526100d0565b6001600160a01b038116811461006f57600080fd5b50565b600080600080600060a0868803121561008a57600080fd5b85516100958161005a565b60208701519095506100a68161005a565b60408701519094506100b78161005a565b6060870151608090970151959894975095949392505050565b60805160a05160c05160e05161010051610600610127600039600061023d0152600061021c015260008181604b0152818161018d01526102d501526000818160da015261038a0152600061034e01526106006000f3fe608060405234801561001057600080fd5b50600436106100415760003560e01c80631d1c9e591461004657806394985ddd1461009757806395733bab146100ac575b600080fd5b61006d7f000000000000000000000000000000000000000000000000000000000000000081565b60405173ffffffffffffffffffffffffffffffffffffffff90911681526020015b60405180910390f35b6100aa6100a53660046104d1565b6100c2565b005b6100b4610173565b60405190815260200161008e565b3373ffffffffffffffffffffffffffffffffffffffff7f00000000000000000000000000000000000000000000000000000000000000001614610165576040517f08c379a000000000000000000000000000000000000000000000000000000000815260206004820152601f60248201527f4f6e6c7920565246436f6f7264696e61746f722063616e2066756c66696c6c00604482015260640160405180910390fd5b61016f8282610266565b5050565b60003373ffffffffffffffffffffffffffffffffffffffff7f000000000000000000000000000000000000000000000000000000000000000016146101e4576040517ff2a90e5c00000000000000000000000000000000000000000000000000000000815260040160405180910390fd5b6040518181527fd2a30b50f3b36ffaefd8b07edd6e845b0c03034fa9725e1714f26067b3000d7e9060200160405180910390a16102617f00000000000000000000000000000000000000000000000000000000000000007f000000000000000000000000000000000000000000000000000000000000000061034a565b905090565b60408051838152602081018390527feabfe4e3f5d4287e8c81b4d67d7b4f8a7ec3fb2a2123f0f57cadcda74ba7eaae910160405180910390a16040517f13b45a4700000000000000000000000000000000000000000000000000000000815260048101839052602481018290527f000000000000000000000000000000000000000000000000000000000000000073ffffffffffffffffffffffffffffffffffffffff16906313b45a4790604401600060405180830381600087803b15801561032e57600080fd5b505af1158015610342573d6000803e3d6000fd5b505050505050565b60007f000000000000000000000000000000000000000000000000000000000000000073ffffffffffffffffffffffffffffffffffffffff16634000aea07f0000000000000000000000000000000000000000000000000000000000000000848660006040516020016103c7929190918252602082015260400190565b6040516020818303038152906040526040518463ffffffff1660e01b81526004016103f4939291906104f3565b6020604051808303816000875af1158015610413573d6000803e3d6000fd5b505050506040513d601f19601f82011682018060405250810190610437919061058b565b5060008381526020818152604080832054815180840188905280830185905230606082015260808082018390528351808303909101815260a0909101909252815191830191909120868452929091526104919060016105b4565b6000858152602081815260409182902092909255805180830187905280820184905281518082038301815260609091019091528051910120949350505050565b600080604083850312156104e457600080fd5b50508035926020909101359150565b73ffffffffffffffffffffffffffffffffffffffff8416815260006020848184015260606040840152835180606085015260005b8181101561054357858101830151858201608001528201610527565b81811115610555576000608083870101525b50601f017fffffffffffffffffffffffffffffffffffffffffffffffffffffffffffffffe0169290920160800195945050505050565b60006020828403121561059d57600080fd5b815180151581146105ad57600080fd5b9392505050565b600082198211156105ee577f4e487b7100000000000000000000000000000000000000000000000000000000600052601160045260246000fd5b50019056fea164736f6c634300080d000a",
    "linkReferences": {}
  },
  "methodIdentifiers": {
    "artGobblers()": "1d1c9e59",
    "rawFulfillRandomness(bytes32,uint256)": "94985ddd",
    "requestRandomBytes()": "95733bab"
  },
  "id": 34
}